:100000000C9472000C949A000C949A000C949A0030
:100010000C949A000C949A000C949A000C949A00F8
:100020000C949A000C949A000C949A000C949A00E8
:100030000C949A000C949A000C949A000C949A00D8
:100040000C940B070C949A000C947B070C945507A6
:100050000C949A000C949A000C949A000C949A00B8
:100060000C94AD070C949A00005EBCE2613FDD8306
:10007000C29C7E20A3FD1F41009D23BE46DB65F888
:100080008C11AF32CA57E974000000080002010069
:100090000003040700000000000000000000000052
:1000A000250028002B0000000000240027002A0063
:1000B00000000000230026002900040404040404B6
:1000C0000404020202020202030303030303010207
:1000D00004081020408001020408102001020408D6
:1000E0001020CC0811241FBECFEFD8E0DEBFCDBF5B
:1000F00011E0A0E0B1E0E6EEFFE102C005900D9254
:10010000A639B107D9F723E0A6E9B1E001C01D92F5
:10011000A533B207E1F710E0C2E7D0E004C02197B1
:10012000FE010E94EB0FC137D107C9F70E94900969
:100130000C94F10F0C94000090E0FC01E857FF4F85
:100140002491FC01E253FF4F3491FC01E654FF4F30
:10015000E491EE23C9F0222339F0233001F1A8F411
:10016000213019F1223029F1F0E0EE0FFF1FE456A3
:10017000FF4FA591B4918FB7F894EC91611126C00F
:1001800030953E233C938FBF08952730A9F0283047
:10019000C9F0243049F7809180008F7D03C08091A1
:1001A00080008F7780938000DFCF84B58F7784BD08
:1001B000DBCF84B58F7DFBCF8091B0008F778093AC
:1001C000B000D2CF8091B0008F7DF9CF3E2BDACF37
:1001D0003FB7F8948091130290911402A0911502F8
:1001E000B091160226B5A89B05C02F3F19F00196C5
:1001F000A11DB11D3FBFBA2FA92F982F8827BC0181
:10020000CD01620F711D811D911D42E0660F771FA8
:10021000881F991F4A95D1F708958F929F92AF92A8
:10022000BF92CF92DF92EF92FF926B017C010E940E
:10023000E8004B015C01C114D104E104F104B9F000
:100240000E94E800681979098A099B09683E734091
:100250008105910580F321E0C21AD108E108F10877
:1002600088EE880E83E0981EA11CB11CE4CFFF909D
:10027000EF90DF90CF90BF90AF909F908F900895B8
:1002800008950895AF92BF92CF92DF92EF92FF92BE
:100290000F931F93CF93DF936C017B018B01040FAE
:1002A000151FEB015E01AE18BF08C017D10759F04A
:1002B0006991D601ED91FC910190F081E02DC6018C
:1002C0000995892B79F7C501DF91CF911F910F9186
:1002D000FF90EF90DF90CF90BF90AF900895FC011A
:1002E000538D448D252F30E0842F90E0821B930B9B
:1002F000541710F0CF96089501970895FC01918D41
:10030000828D981761F0A28DAE0FBF2FB11D5D9643
:100310008C91928D9F5F9F73928F90E008958FEFE5
:100320009FEF0895FC01918D828D981731F0828D99
:10033000E80FF11D858D90E008958FEF9FEF0895F0
:10034000FC01918D228D892F90E0805C9F4F821B54
:1003500091098F739927089587E692E00E94A00182
:1003600021E0892B09F420E0822F089580E090E0BD
:10037000892B29F00E94AC0181110C940000089592
:10038000FC01A48DA80FB92FB11DA35ABF4F2C910A
:10039000848D90E001968F739927848FA689B78901
:1003A0002C93A089B1898C91837080648C93938DF8
:1003B000848D981306C00288F389E02D80818F7D9B
:1003C00080830895EF92FF920F931F93CF93DF9353
:1003D000EC0181E0888F9B8D8C8D98131AC0E88981
:1003E000F989808185FF15C09FB7F894EE89FF8950
:1003F0006083E889F98980818370806480839FBFEE
:1004000081E090E0DF91CF911F910F91FF90EF90ED
:100410000895F62E0B8D10E00F5F1F4F0F731127FD
:10042000E02E8C8D8E110CC00FB607FCFACFE88938
:10043000F989808185FFF5CFCE010E94C001F1CFFF
:10044000EB8DEC0FFD2FF11DE35AFF4FF0829FB7AC
:10045000F8940B8FEA89FB8980818062CFCFCF939C
:10046000DF93EC01888D8823B9F0AA89BB89E889DC
:10047000F9898C9185FD03C0808186FD0DC00FB682
:1004800007FCF7CF8C9185FFF2CF808185FFEDCF00
:10049000CE010E94C001E9CFDF91CF910895209154
:1004A000D701260F3327331F21323105ECF4209179
:1004B0003D02FC0190E080E0243069F082E0089584
:1004C000A091D7012191AC0149545E4FA40FB52FE3
:1004D000B11D2C930196861798F38091D701680F70
:1004E0006093D70180E0089581E0089510923D0265
:1004F00081E080933C021092170261E082E10E9449
:100500009C0061E083E10E949C00E9EBF0E08081C7
:100510008E7F808380818D7F808388E48093B80084
:1005200085E48093BC000895CF93DF9391E090938E
:10053000B6018823B9F0C091B800D091BA0080917B
:10054000BC008A7B8093BC0060E082E10E949C003A
:1005500060E083E10E949C000E947602D093BA0082
:10056000C093B800DF91CF910895CF92DF92EF92C0
:10057000FF920F931F93CF93DF93D091660281E098
:10058000D13208F09CC0C09165020E94E8006B0166
:100590007C0180913D0281116CC082E080933D021C
:1005A00081E080933C028FEF80933B0210923A02ED
:1005B000D0933902A5E4B2E0E9E1F2E080E0D8139B
:1005C0008DC01092180280911802CC0FC82BC093D6
:1005D000180280911702813009F084C0109217022E
:1005E0000E94E8006B017C01809118028093BB009F
:1005F00080913F0290914002A0914102B09142024D
:10060000892B8A2B8B2BA1F00E94E80000913F02DE
:100610001091400220914102309142026C197D09F3
:100620008E099F09061717072807390708F442C0E3
:100630008091BC0083FDD8CF85EC8093BC000E94E4
:10064000E8006B017C0180913D02823009F44CC0CE
:1006500080913B028F3F09F469C080913B02803258
:1006600009F466C080913B02803309F463C084E0E2
:1006700026C080913F0290914002A0914102B0912A
:100680004202892B8A2B8B2B09F483CF0E94E8002E
:1006900000913F02109140022091410230914202AC
:1006A0006C197D098E099F09061717072807390756
:1006B00008F06FCF80913E020E94940285E0109274
:1006C00044021092660210924302DF91CF911F9173
:1006D0000F91FF90EF90DF90CF9008959D919193AF
:1006E0008F5F6DCF85EEA9CF80913F029091400240
:1006F000A0914102B0914202892B8A2B8B2B09F4E5
:10070000A2CF0E94E80000913F0210914002209188
:100710004102309142026C197D098E099F0906172A
:1007200017072807390708F08ECFC4CF80E0C7CF5E
:1007300082E0C5CF83E0C3CF0895E091FF018091AF
:10074000FE01E81730F4F0E0EA56FE4F808190E0B9
:1007500008958FEF9FEF08959091FF018091FE0122
:100760002FEF3FEF981748F4E92FF0E0EA56FE4FDD
:10077000208130E09F5F9093FF01C901089580912F
:10078000FE019091FF01891B990B0895CF92DF9292
:10079000EF92FF920F931F93CF93DF937C01CB01D6
:1007A0008A0120914302222389F0EB016B01C40EE0
:1007B000D51ECC15DD0569F06991D701ED91FC914D
:1007C0000190F081E02DC7010995F3CF642F0E94BD
:1007D0004F02C801DF91CF911F910F91FF90EF90D1
:1007E000DF90CF900895CF93DF931F92CDB7DEB700
:1007F0006983209143022223F9F02091660220327E
:1008000058F021E030E0FC013383228390E080E067
:100810000F90DF91CF91089580914402E82FF0E08E
:10082000EB5BFD4F998190838F5F809344028093AF
:10083000660281E090E0ECCF61E0CE0101960E947B
:100840004F02F7CF682F84E093E00C94F30390E01D
:1008500080E00895DC0180E0615090F09D91982740
:10086000E92FEF70F0E0E859FF4F2491E92FE2956E
:10087000EF70F0E0E858FF4FE491822F8E27ECCF25
:100880000895DC012C911196ED91FC91F8948181F1
:10089000822B81839281322F30959323928387E03C
:1008A00090E00197F1F781818323818383E290E0D7
:1008B0000197F1F790817894EFECF0E03197F1F740
:1008C000922381E009F480E00895FC019081018089
:1008D000F281E02D292F209560FF14C0F8948281C9
:1008E000822382838181892B8183A3E2B0E01197E7
:1008F000F1F78281982B9283789487ED90E00197AD
:10090000F1F70895F8948281822382838181892B73
:100910008183AFEFB0E01197F1F78281982B92833A
:1009200078948FE090E0EBCFDF92EF92FF920F93FD
:100930001F93CF93DF93EC01D62EE42E08E010E056
:10094000FF24F39461E08D2D8F2109F460E0CE0146
:100950000E946504FF0C01501109A1F7E11010C0BD
:10096000F894E981FA819181888180958923818336
:10097000E981FA81928188818095892382837894A4
:10098000DF91CF911F910F91FF90EF90DF9008952D
:10099000EF92FF920F931F93CF93DF938C017B0114
:1009A00040E065E50E949404E70188E0E80EF11C50
:1009B000699140E0C8010E949404CE15DF05C1F79B
:1009C000DF91CF911F910F91FF90EF900895FC015F
:1009D00090810180F281E02DF8948181292F20956A
:1009E0008223818378943DE743E050E0315029F140
:1009F000DA011197F1F780818923C1F3F89482819C
:100A0000822382838181892B81837894ABE7B7E04D
:100A10001197F1F7F894818182238183A3E1B1E0FA
:100A20001197F1F78081982381E009F080E07894B4
:100A3000E3E6F6E03197F1F7089580E008956F92CC
:100A40007F928F929F92AF92BF92CF92DF92EF925E
:100A5000FF920F931F93CF93DF938C01EB01809153
:100A6000190390911A030E94E704882309F43FC0F8
:100A7000B8018091190390911A030E94C80440E0C4
:100A80006EEB8091190390911A030E9494047E01E9
:100A90006E0189E0C80ED11C8E01A0901903B090A0
:100AA0001A0388E0882E912C712C66246394C5016A
:100AB0000E94410481117628660CE1E08E1A9108AB
:100AC000B1F7F80171928F01CE16DF0631F78091F0
:100AD000190390911A030E94E704813041F4F70151
:100AE00081917F01811105C0E017F107C1F790E006
:100AF00008C068E0CE010E942A0491E028852813EE
:100B0000F6CF892FDF91CF911F910F91FF90EF903A
:100B1000DF90CF90BF90AF909F908F907F906F901D
:100B20000895FC0101900020E9F73197AF01481BBF
:100B3000590BBC0187E692E00C9442018F929F9280
:100B4000AF92BF920F931F93CF93DF93CDB7DEB7D2
:100B5000A1970FB6F894DEBF0FBECDBF19A24230E9
:100B600008F44AE08E010F5D1F4F842E912CB12CAA
:100B7000A12CA50194010E94B50FE62FB901CA016D
:100B8000EA30F4F4E05DD801EE938D01232B242BA1
:100B9000252B79F790E080E0109719F0CD010E94A5
:100BA0009105A1960FB6F894DEBF0FBECDBFDF91C1
:100BB000CF911F910F91BF90AF909F908F9008950C
:100BC000E95CE1CFCF93DF930E949105EC018CE4C7
:100BD00091E00E9491058C0F9D1FDF91CF910895A8
:100BE000BF92CF92DF92EF92FF920F931F93CF931A
:100BF000DF93EC01B62EC72E8D85811105C0CE0185
:100C00000E94E70481110EC01B861D861C8680E0B1
:100C1000DF91CF911F910F91FF90EF90DF90CF90D8
:100C2000BF90089540E060EFCE010E94940401E07F
:100C3000E12CD12C11E0CE010E944104F82ECE010E
:100C40000E94410491E0F91218C0813099F51134E5
:100C5000D8F2DB86D11002C081E08D878B8188239A
:100C600099F22396EB2DFC2DCF0108962991219323
:100C7000E817F907D9F781E0CBCFEE2DF0E0F812B5
:100C80000FC08B851817A0F4DE01AE0FBF1F13969F
:100C90008C91802379F4F12C193008F41C87D12E23
:100CA000EC0FFD1F8381902F9095892383830AC0C9
:100CB0008113F1CFFE01EE0DF11D8381802B838323
:100CC000FF24F3946F2DCE010E9465041F5F000F77
:100CD00011F4E39401E087E08E1508F0ACCFB7CFB4
:100CE000FF920F931F93CF93DF938C01F62EE09129
:100CF0001903F0911A03138615861486128611863D
:100D0000108617821682158214821382C0E0B80101
:100D10008091190390911A030E94F005D82F88231F
:100D200029F0FC1629F0CF5FFC1688F7D0E008C048
:100D300067E0C8010E942A04F80197818913F3CF64
:100D40008D2FDF91CF911F910F91FF900895CF923A
:100D5000DF92EF92FF92CF93DF9397FF1BC06B015F
:100D60007C016DE287E692E00E94E201EC016627D9
:100D70007727CB016C197D098E099F094AE00E94F3
:100D80009E058C0F9D1FDF91CF91FF90EF90DF901C
:100D9000CF9008954AE0DF91CF91FF90EF90DF90E0
:100DA000CF900C949E0585ED8093BC0080913F020E
:100DB00090914002A0914102B09142020796A11D7C
:100DC000B11D23E0B695A795979587952A95D1F7FC
:100DD0002091BC0024FD03C010923D020895409173
:100DE0003F02509140026091410270914202452BB6
:100DF000462B472B69F30097A105B10541F02AE284
:100E00002A95F1F700C00197A109B109E1CF8091BE
:100E10003E020C9494021F920F920FB60F9211246F
:100E20002F933F938F939F93AF93BF9380910F0224
:100E300090911002A0911102B091120230910E0215
:100E400023E0230F2D3758F50196A11DB11D2093E6
:100E50000E0280930F0290931002A0931102B093A0
:100E600012028091130290911402A0911502B09188
:100E700016020196A11DB11D8093130290931402D6
:100E8000A0931502B0931602BF91AF919F918F91DD
:100E90003F912F910F900FBE0F901F90189526E84D
:100EA000230F0296A11DB11DD2CF1F920F920FB634
:100EB0000F9211242F933F934F935F936F937F93E0
:100EC0008F939F93AF93BF93EF93FF9387E692E047
:100ED0000E94C001FF91EF91BF91AF919F918F91BF
:100EE0007F916F915F914F913F912F910F900FBE26
:100EF0000F901F9018951F920F920FB60F9211240A
:100F00002F938F939F93EF93FF93E0917702F0914C
:100F100078028081E0917D02F0917E0282FD1BC00B
:100F20009081809180028F5F8F7320918102821760
:100F300041F0E0918002F0E0E959FD4F958F8093F8
:100F40008002FF91EF919F918F912F910F900FBE93
:100F50000F901F9018958081F4CF1F920F920FB6BB
:100F60000F9211242F933F934F935F936F937F932F
:100F70008F939F93AF93BF93EF93FF938091B900AB
:100F8000887F803609F44AC0F0F5883209F4A7C09A
:100F900018F5803109F49BC0B8F4882309F4F9C02E
:100FA000883009F494C0FF91EF91BF91AF919F9168
:100FB0008F917F916F915F914F913F912F910F9002
:100FC0000FBE0F901F901895883109F488C08032A9
:100FD00051F780933B0214C0803409F49DC040F463
:100FE0008033B9F38833F9F680933B0285ECB0C0C7
:100FF000803509F485C0883509F496C0883499F69F
:101000000E94D306D0CF883909F48CC038F58837D0
:1010100029F050F4883611F0803729F683E0809368
:101020003D021092F90157C0883809F47BC080391D
:1010300019F0803809F0B7CF8091F901803208F0BB
:1010400071C0E091F90181E08E0F8093F9018091E8
:10105000BB00F0E0E752FE4F80833DC0803B39F09B
:10106000E0F4803A09F479C0883A09F09CCF84E032
:1010700080933D021092D8011092D701E091FC01BB
:10108000F091FD0109958091D70181110FC081E098
:101090008093D7011092B70109C0803C09F4A6CF14
:1010A000883C09F4A3CF883B09F07DCFE091D801BB
:1010B00081E08E0F8093D801F0E0E954FE4F8081EB
:1010C0008093BB009091D8018091D70129C0809175
:1010D00018028093BB0085EC8093BC0064CF909194
:1010E0003A0280913902981758F5E0913A0281E06E
:1010F0008E0F80933A02F0E0E75EFD4F8081E9CFEA
:10110000E0913A0281E08E0F80933A028091BB0019
:10111000F0E0E75EFD4F808390913A0280913902C2
:101120009817C8F285E8D8CFE0913A0281E08E0F97
:1011300080933A028091BB00F0E0E75EFD4F808330
:1011400080913C0281115CCF81E08093170284EA98
:101150008093BC0010923D0226CF85EC8093BC00AA
:1011600010923D028091F901803230F4E091F90152
:10117000F0E0E752FE4F10826091F90170E0E091DB
:10118000FA01F091FB0189ED91E009951092F901C6
:101190000ACF10923B0234CFCF93DF9310926A02B2
:1011A0001092690288EE93E0A0E0B0E080936B02B9
:1011B00090936C02A0936D02B0936E022CE231E02A
:1011C000309368022093670225EC30E0309374027C
:1011D0002093730224EC30E0309376022093750262
:1011E00020EC30E0309378022093770221EC30E05D
:1011F00030937A022093790222EC30E030937C0223
:1012000020937B0226EC30E030937E0220937D0217
:101210001092800210928102109282021092830238
:10122000109207031092060380930803909309031A
:10123000A0930A03B0930B038EE391E09093050310
:101240008093040340ED50E0FA0164918CEB90E050
:10125000FC0124912223C1F030E0220F331FF90159
:10126000EA55FF4FA591B491F901E456FF4FC5919E
:10127000D4917FB7F8943C91262F209532233C934C
:101280003881232328837FBFFA01449140932703A9
:10129000FC018491E82FF0E0EE0FFF1FE055FF4FB7
:1012A000859194919093290380932803109232039F
:1012B00010923403109233031092310310923003D2
:1012C00010922F0310922E0310922D0310922C03D4
:1012D00010922B0310922A031092170310921803F6
:1012E0001092100389E08093130381E0809314032C
:1012F0008093150380931603109211031092260316
:10130000109225038FEF809323031092240387E22A
:1013100093E090931A0380931903DF91CF9108957E
:10132000CF93DF93CDB7DEB761970FB6F894DEBFEA
:101330000FBECDBF789484B5826084BD84B58160D2
:1013400084BD85B5826085BD85B5816085BD809190
:101350006E00816080936E00109281008091810008
:101360008260809381008091810081608093810000
:10137000809180008160809380008091B1008460C2
:101380008093B1008091B00081608093B000809123
:101390007A00846080937A0080917A0082608093E2
:1013A0007A0080917A00816080937A0080917A003F
:1013B000806880937A001092C10013E001E0E09110
:1013C0001903F0911A031386158614861286118666
:1013D00010861782168215821482138210921703C8
:1013E0001092180362E370E080E090E00E940D012B
:1013F000BE01665F7F4F8091190390911A030E948E
:10140000F005882309F47AC067E0CE010A960E94AD
:101410002A0499898913ECCF809117038F5F8093F9
:1014200017038A85883231F008F04EC0803111F000
:101430008232F1F6809118038F5F809318038091B8
:101440001003811128C08091190390911A030E9402
:10145000E704BE01665F7F4F8091190390911A03E4
:101460000E94C80440E064EB8091190390911A0334
:101470000E9494048091190390911A030E944104E0
:10148000F82E8091190390911A030E94E704F1103D
:1014900002C0009310038A85803109F1BE016F5F9D
:1014A0007F4FCE010A960E941F05882359F08D8137
:1014B0009A859B3311F487FD12C08F3391F058F455
:1014C0008F31C1F080E00EC08B3309F4B3CF82348A
:1014D00009F08ECFAFCF8F3579F08F3799F78CE049
:1014E00001C08AE090911303981708F081CF809390
:1014F00013037ECF89E0F6CF8BE0F4CF8091170302
:10150000811103C0115009F05ACFE0917702F09198
:10151000780282E08083E0917302F091740210827D
:10152000E0917502F09176028FEC808310927F0239
:10153000E0917B02F0917C0286E08083E091790269
:10154000F0917A02808180618083E0917902F0914C
:101550007A02808188608083E0917902F0917A023A
:10156000808180688083E0917902F0917A028081A5
:101570008F7D808364EF71E080E090E00E940D0138
:101580008FE491E00E94910583E691E00E9491052D
:1015900060911703862F90E090930D0280930C02C8
:1015A00070E090E080E00E94A7068AE691E00E9449
:1015B000E2058EE491E00E94E205C12CD12C760177
:1015C00080910C0290910D02C816D906D4F584E7DB
:1015D00091E00E949105460157012FEF821A920A6D
:1015E000A20AB20AC501B4010E94A7068CE791E0E5
:1015F0000E94910580911703C81628F46C2D80E095
:1016000092E00E94700600E012E0F80180818031D3
:1016100020F480E891E00E949105F80161918F012A
:1016200070E090E080E040E10E949E05F2E008302A
:101630001F0759F78CE491E00E9491057501640140
:10164000BFCF1092FF011092FE011092440210923F
:1016500066020E94760280E491E09093FD018093FF
:10166000FC0181E491E09093FB018093FA0164EF27
:1016700071E080E090E00E940D0181E080934302E0
:1016800088E38093650290E080E00E94220487E472
:1016900090E00E9422040E94B5028091190390916B
:1016A0001A030E94E70440E06CEC809119039091CA
:1016B0001A030E9494044091100364E4809119037A
:1016C00090911A030E9494048FB7F894C0900F026F
:1016D000D0901002E0901102F09012028FBF809122
:1016E0001403882329F180911503882309F4E5C0A8
:1016F000809110038111E1C08091190390911A0328
:101700000E9441048130A1F02FB7F89480910F021C
:1017100090911002A0911102B09112022FBF8C196A
:101720009D09AE09BF098E3E9240A105B10520F387
:10173000C12CD12C760180910C0290910D02C8161B
:10174000D9060CF016C284E791E00E9491052601AB
:1017500037014FEF441A540A640A740AC301B201F4
:101760000E94A7068CE791E00E94910580911703E3
:10177000C81608F4CBC0C12CD12CAEEFEA2EA2ECD7
:10178000FA2EC0920802D0920902E0920A02F09268
:101790000B0220E030E048EC52E4C701B6010E94A1
:1017A0002F0F0E94420E8B01CB0168EE73E00E9466
:1017B000A10F5B0148E15CEF649FC001659F900D44
:1017C000749F900D1124800F911F64E670E00E94B9
:1017D000A10F1B0188EE93E0A89EF001A99EF00DD9
:1017E000B89EF00D112444E6469FC001479F900D1E
:1017F0001124E80FF91FC8018E1B9F0B6AE070E0EF
:101800000E94A10F4B015AE0569FC001579F900DB7
:101810001124E80FF91F0E1B1F0B81E08093430278
:1018200098E390936502109244021092660281E060
:1018300090E00E942204000F111FF801EA5FFE4FA2
:10184000808191810E942204F401EE0FFF1FEA5F64
:10185000FE4F808191810E942204F101EE0FFF1F53
:10186000EA5FFE4F8081918180589F4F0E94220441
:10187000F501EE0FFF1FEA5FFE4F808191810E940C
:1018800022040E94B5026AE070E080E090E00E94CD
:101890000D01A7019601C701B6010E949C0F882384
:1018A00009F4D5C082E891E00E9491058EE891E0AC
:1018B0000E949105730162013ECFE0911303E9504C
:1018C0008EEE92E0E33038F4F0E0EE0FFF1FE050D0
:1018D000FF4F808191816C01F12CE12C80911103EB
:1018E000882329F060E0809112030E949C00C701C8
:1018F000B6010E940D0180911103882309F418CFCD
:1019000061E0809112030E949C0012CF6C2DCE01E9
:101910000A960E947006882309F42DCFBE016F5FDE
:101920007F4FCE010A960E941F05882309F423CF1A
:101930008A81C12CD12C760187FF06C0C12CD12C05
:10194000F8EFEF2EFF24FA944A8509814B33E1F535
:101950009D8197FF39C000FD0ECF10E030E020E000
:1019600073E0000F111F221F331F7A95D1F7007EFD
:1019700017702227332790E0B0E0A0E0EBE0880F5B
:10198000991FAA1FBB1FEA95D1F7802B912BA22B81
:10199000B32B8C019D010C291D292E293F290138CB
:1019A000F4EE1F07FFEF2F073F070CF4E4CEC90149
:1019B000B8010E947A0E20E030E040E05CE30E9433
:1019C0002F0F6B017C01DDCE90E0982F8827990FB7
:1019D000990F990F58E0059F80011124082B192BAE
:1019E000012E000C220B330B0C291D292E293F2917
:1019F0004031A9F66885662391F270E08F81FB0182
:101A0000E81BF109CF019695982F88279795879520
:101A10000E94A10FCB01770FAA0BBB0B53E0000F65
:101A2000111F221F331F5A95D1F7007827703327D3
:101A30000052110921093109800F911FA21FB31F04
:101A400097018601082B192B2A2B3B2BA8CF460187
:101A50005701E894B7F82FEF3FEF4FE75FE7C50175
:101A6000B4010E949C0F81110DC02FEF3FEF4FE793
:101A70005FE7C501B4010E943D0E18161CF486E80C
:101A800091E012CF2FEF3FEF4FE75FE4C701B601C0
:101A90000E942A0F18161CF48AE891E005CF2FEF58
:101AA0003FEF4FE75FECC701B6010E943D0E87FD97
:101AB000F3CF20E030E0A901C701B6010E943D0E3E
:101AC00087FF09C06DE287E692E00E94E201F7FA23
:101AD000F094F7F8F0942AE037ED43EA5BE3C701AE
:101AE000B6010E94D10D4B015C010E94490E6B01B1
:101AF0007C010E94780E9B01AC01C501B4010E94DB
:101B0000D00D4B015C014AE0C701B6010E949E0561
:101B10006EE287E692E00E94E20120E030E040E2DF
:101B200051E4C501B4010E942F0F4B015C010E94DA
:101B3000490E6B01F12CE12C4AE0C701B6010E946D
:101B40009E05C701B6010E94780E9B01AC01C5013C
:101B5000B4010E94D00D20E030E040E251E40E9448
:101B60002F0F0E94490E90E080E04AE00E949E05FF
:101B70009DCE8EE491E00E94E20568EE73E080E085
:101B800090E00E940D0180E090E0892B09F485CD62
:101B90000E94AC01882309F480CD0E9400007DCD15
:101BA0005058BB27AA270E94E80D0C94F00E0E9403
:101BB000E20E38F00E94E90E20F039F49F3F19F44C
:101BC00026F40C94DF0E0EF4E095E7FB0C94D90E8E
:101BD000E92F0E94010F58F3BA17620773078407B1
:101BE000950720F079F4A6F50C94230F0EF4E095F8
:101BF0000B2EBA2FA02D0B01B90190010C01CA01C7
:101C0000A0011124FF27591B99F0593F50F4503E71
:101C100068F11A16F040A22F232F342F4427585F63
:101C2000F3CF469537952795A795F0405395C9F77B
:101C30007EF41F16BA0B620B730B840BBAF0915033
:101C4000A1F0FF0FBB1F661F771F881FC2F70EC0D2
:101C5000BA0F621F731F841F48F4879577956795A5
:101C6000B795F7959E3F08F0B0CF9395880F08F091
:101C70009927EE0F9795879508950E94B50E08F461
:101C800081E008950E94490E6894B1110C94240FCC
:101C900008950E94090F88F09F5798F0B92F99274F
:101CA000B751B0F0E1F0660F771F881F991F1AF047
:101CB000BA95C9F714C0B13091F00E94230FB1E07A
:101CC00008950C94230F672F782F8827B85F39F079
:101CD000B93FCCF3869577956795B395D9F73EF4E0
:101CE00090958095709561957F4F8F4F9F4F089588
:101CF000E89409C097FB3EF49095809570956195A6
:101D00007F4F8F4F9F4F9923A9F0F92F96E9BB275B
:101D10009395F695879577956795B795F111F8CFD7
:101D2000FAF4BB0F11F460FF1BC06F5F7F4F8F4F42
:101D30009F4F16C0882311F096E911C0772321F038
:101D40009EE8872F762F05C0662371F096E8862FD0
:101D500070E060E02AF09A95660F771F881FDAF727
:101D6000880F9695879597F90895990F0008550F54
:101D7000AA0BE0E8FEEF16161706E807F907C0F011
:101D800012161306E407F50798F0621B730B840B19
:101D9000950B39F40A2661F0232B242B252B21F4F3
:101DA00008950A2609F4A140A6958FEF811D811D93
:101DB000089597F99F6780E870E060E008959FEFCD
:101DC00080EC089500240A941616170618060906D2
:101DD000089500240A9412161306140605060895A1
:101DE000092E0394000C11F4882352F0BB0F40F429
:101DF000BF2B11F460FF04C06F5F7F4F8F4F9F4F69
:101E0000089557FD9058440F551F59F05F3F71F0EA
:101E10004795880F97FB991F61F09F3F79F0879551
:101E20000895121613061406551FF2CF4695F1DFDA
:101E300008C0161617061806991FF1CF869571056A
:101E4000610508940895E894BB2766277727CB019E
:101E500097F908950E94B50E08F48FEF08950E9437
:101E6000420F0C94F00E0E94E20E38F00E94E90E30
:101E700020F0952311F00C94D90E0C94DF0E112450
:101E80000C94240F0E94010F70F3959FC1F3950FDE
:101E900050E0551F629FF001729FBB27F00DB11DEE
:101EA000639FAA27F00DB11DAA1F649F6627B00D7E
:101EB000A11D661F829F2227B00DA11D621F739F67
:101EC000B00DA11D621F839FA00D611D221F749F75
:101ED0003327A00D611D231F849F600D211D822FBC
:101EE000762F6A2F11249F5750409AF0F1F08823E3
:101EF0004AF0EE0FFF1FBB1F661F771F881F915010
:101F00005040A9F79E3F510580F00C94D90E0C94D7
:101F1000240F5F3FE4F3983ED4F386957795679559
:101F2000B795F795E7959F5FC1F7FE2B880F911D39
:101F30009695879597F908950E94B50E880B990B91
:101F4000089597FB072E16F4009407D077FD09D06B
:101F50000E94D70F07FC05D03EF4909581959F4FC6
:101F60000895709561957F4F0895A1E21A2EAA1BDE
:101F7000BB1BFD010DC0AA1FBB1FEE1FFF1FA21739
:101F8000B307E407F50720F0A21BB30BE40BF50B36
:101F9000661F771F881F991F1A9469F760957095BF
:101FA000809590959B01AC01BD01CF010895AA1BBE
:101FB000BB1B51E107C0AA1FBB1FA617B70710F034
:101FC000A61BB70B881F991F5A95A9F78095909566
:101FD000BC01CD010895EE0FFF1F0590F491E02D97
:061FE0000994F894FFCF04
:101FE6005E00BC0077013F0006005B004F00660004
:101FF6006D007D0007007F006F0077007C003900D0
:102006005E0079007100000000000000E20142015C
:102016006F012F02A0017E01920100000000F30370
:10202600C60327049C03BF03AC039D030D0A004CA3
:102036006F636174696E6720646576696365732E84
:102046002E2E00466F756E642000206465766963E7
:1020560065732E0053656E736F722000203A200060
:1020660030006E616E00696E66006F766600204312
:0620760020207C20200068
:00000001FF
