:100000000C9472000C949A000C949A000C949A0030
:100010000C949A000C949A000C949A000C949A00F8
:100020000C949A000C949A000C949A000C949A00E8
:100030000C949A000C949A000C949A000C949A00D8
:100040000C9400070C949A000C9470070C944A07C7
:100050000C949A000C949A000C949A000C949A00B8
:100060000C94A2070C949A00005EBCE2613FDD8311
:10007000C29C7E20A3FD1F41009D23BE46DB65F888
:100080008C11AF32CA57E974000000080002010069
:100090000003040700000000000000000000000052
:1000A000250028002B0000000000240027002A0063
:1000B00000000000230026002900040404040404B6
:1000C0000404020202020202030303030303010207
:1000D00004081020408001020408102001020408D6
:1000E0001020C10811241FBECFEFD8E0DEBFCDBF66
:1000F00011E0A0E0B1E0E8E2F1E202C005900D926B
:10010000A63BB107D9F723E0A6EBB1E001C01D92F1
:10011000A535B207E1F710E0C2E7D0E004C02197AF
:10012000FE010E948C10C137D107C9F70E948509D2
:100130000C9492100C94000090E0FC01E857FF4FE3
:100140002491FC01E253FF4F3491FC01E654FF4F30
:10015000E491EE23C9F0222339F0233001F1A8F411
:10016000213019F1223029F1F0E0EE0FFF1FE456A3
:10017000FF4FA591B4918FB7F894EC91611126C00F
:1001800030953E233C938FBF08952730A9F0283047
:10019000C9F0243049F7809180008F7D03C08091A1
:1001A00080008F7780938000DFCF84B58F7784BD08
:1001B000DBCF84B58F7DFBCF8091B0008F778093AC
:1001C000B000D2CF8091B0008F7DF9CF3E2BDACF37
:1001D0003FB7F8948091330290913402A091350298
:1001E000B091360226B5A89B05C02F3F19F00196A5
:1001F000A11DB11D3FBFBA2FA92F982F8827BC0181
:10020000CD01620F711D811D911D42E0660F771FA8
:10021000881F991F4A95D1F708958F929F92AF92A8
:10022000BF92CF92DF92EF92FF926B017C010E940E
:10023000E8004B015C01C114D104E104F104B9F000
:100240000E94E800681979098A099B09683E734091
:100250008105910580F321E0C21AD108E108F10877
:1002600088EE880E83E0981EA11CB11CE4CFFF909D
:10027000EF90DF90CF90BF90AF909F908F900895B8
:1002800008950895AF92BF92CF92DF92EF92FF92BE
:100290000F931F93CF93DF936C017B018B01040FAE
:1002A000151FEB015E01AE18BF08C017D10759F04A
:1002B0006991D601ED91FC910190F081E02DC6018C
:1002C0000995892B79F7C501DF91CF911F910F9186
:1002D000FF90EF90DF90CF90BF90AF900895FC011A
:1002E000538D448D252F30E0842F90E0821B930B9B
:1002F000541710F0CF96089501970895FC01918D41
:10030000828D981761F0A28DAE0FBF2FB11D5D9643
:100310008C91928D9F5F9F73928F90E008958FEFE5
:100320009FEF0895FC01918D828D981731F0828D99
:10033000E80FF11D858D90E008958FEF9FEF0895F0
:10034000FC01918D228D892F90E0805C9F4F821B54
:1003500091098F739927089587E892E00E94A00180
:1003600021E0892B09F420E0822F089580E090E0BD
:10037000892B29F00E94AC0181110C940000089592
:10038000FC01A48DA80FB92FB11DA35ABF4F2C910A
:10039000848D90E001968F739927848FA689B78901
:1003A0002C93A089B1898C91837080648C93938DF8
:1003B000848D981306C00288F389E02D80818F7D9B
:1003C00080830895EF92FF920F931F93CF93DF9353
:1003D000EC0181E0888F9B8D8C8D98131AC0E88981
:1003E000F989808185FF15C09FB7F894EE89FF8950
:1003F0006083E889F98980818370806480839FBFEE
:1004000081E090E0DF91CF911F910F91FF90EF90ED
:100410000895F62E0B8D10E00F5F1F4F0F731127FD
:10042000E02E8C8D8E110CC00FB607FCFACFE88938
:10043000F989808185FFF5CFCE010E94C001F1CFFF
:10044000EB8DEC0FFD2FF11DE35AFF4FF0829FB7AC
:10045000F8940B8FEA89FB8980818062CFCFCF939C
:10046000DF93EC01888D8823B9F0AA89BB89E889DC
:10047000F9898C9185FD03C0808186FD0DC00FB682
:1004800007FCF7CF8C9185FFF2CF808185FFEDCF00
:10049000CE010E94C001E9CFDF91CF910895209154
:1004A000F701260F3327331F21323105ECF4209159
:1004B0005D02FC0190E080E0243069F082E0089564
:1004C000A091F7012191AC0149525E4FA40FB52FC5
:1004D000B11D2C930196861798F38091F701680F50
:1004E0006093F70180E0089581E0089510925D0225
:1004F00081E080935C021092370261E082E10E9409
:100500009C0061E083E10E949C00E9EBF0E08081C7
:100510008E7F808380818D7F808388E48093B80084
:1005200085E48093BC000895CF93DF9391E090938E
:10053000D6018823B9F0C091B800D091BA0080915B
:10054000BC008A7B8093BC0060E082E10E949C003A
:1005500060E083E10E949C000E947602D093BA0082
:10056000C093B800DF91CF910895CF92DF92EF92C0
:10057000FF920F931F93CF93DF93D091860281E078
:10058000D13208F09CC0C09185020E94E8006B0146
:100590007C0180915D0281116CC082E080935D02DC
:1005A00081E080935C028FEF80935B0210925A028D
:1005B000D0935902A5E6B2E0E9E3F2E080E0D81377
:1005C0008DC01092380280913802CC0FC82BC09396
:1005D000380280913702813009F084C010923702CE
:1005E0000E94E8006B017C01809138028093BB007F
:1005F00080915F0290916002A0916102B0916202CD
:10060000892B8A2B8B2BA1F00E94E80000915F02BE
:100610001091600220916102309162026C197D0993
:100620008E099F09061717072807390708F442C0E3
:100630008091BC0083FDD8CF85EC8093BC000E94E4
:10064000E8006B017C0180915D02823009F44CC0AE
:1006500080915B028F3F09F469C080915B02803218
:1006600009F466C080915B02803309F463C084E0C2
:1006700026C080915F0290916002A0916102B091CA
:100680006202892B8A2B8B2B09F483CF0E94E8000E
:1006900000915F021091600220916102309162022C
:1006A0006C197D098E099F09061717072807390756
:1006B00008F06FCF80915E020E94940285E0109254
:1006C00064021092860210926302DF91CF911F9113
:1006D0000F91FF90EF90DF90CF9008959D919193AF
:1006E0008F5F6DCF85EEA9CF80915F029091600200
:1006F000A0916102B0916202892B8A2B8B2B09F4A5
:10070000A2CF0E94E80000915F0210916002209148
:100710006102309162026C197D098E099F090617EA
:1007200017072807390708F08ECFC4CF80E0C7CF5E
:1007300082E0C5CF83E0C3CF0895E0911F0280918E
:100740001E02E81730F4F0E0EA54FE4F808190E09A
:1007500008958FEF9FEF089590911F0280911E02E0
:100760002FEF3FEF981748F4E92FF0E0EA54FE4FDF
:10077000208130E09F5F90931F02C901089580910E
:100780001E0290911F02891B990B0895CF92DF9250
:10079000EF92FF920F931F93CF93DF937C01CB01D6
:1007A0008A0120916302222389F0EB016B01C40EC0
:1007B000D51ECC15DD0569F06991D701ED91FC914D
:1007C0000190F081E02DC7010995F3CF642F0E94BD
:1007D0004F02C801DF91CF911F910F91FF90EF90D1
:1007E000DF90CF900895CF93DF931F92CDB7DEB700
:1007F0006983209163022223F9F02091860220323E
:1008000058F021E030E0FC013383228390E080E067
:100810000F90DF91CF91089580916402E82FF0E06E
:10082000EB59FD4F998190838F5F80936402809391
:10083000860281E090E0ECCF61E0CE0101960E945B
:100840004F02F7CF682F84E293E00C94F30390E01B
:1008500080E00895DC0180E0615090F09D91982740
:10086000E92FEF70F0E0E859FF4F2491E92FE2956E
:10087000EF70F0E0E858FF4FE491822F8E27ECCF25
:100880000895DC012C911196ED91FC91F8948181F1
:10089000822B81839281322F30959323928387E03C
:1008A00090E00197F1F781818323818383E290E0D7
:1008B0000197F1F790817894EFECF0E03197F1F740
:1008C000922381E009F480E00895FC019081018089
:1008D000F281E02D292F209560FF14C0F8948281C9
:1008E000822382838181892B8183A3E2B0E01197E7
:1008F000F1F78281982B9283789487ED90E00197AD
:10090000F1F70895F8948281822382838181892B73
:100910008183AFEFB0E01197F1F78281982B92833A
:1009200078948FE090E0EBCFDF92EF92FF920F93FD
:100930001F93CF93DF93EC01D62EE42E08E010E056
:10094000FF24F39461E08D2D8F2109F460E0CE0146
:100950000E946504FF0C01501109A1F7E11010C0BD
:10096000F894E981FA819181888180958923818336
:10097000E981FA81928188818095892382837894A4
:10098000DF91CF911F910F91FF90EF90DF9008952D
:10099000EF92FF920F931F93CF93DF938C017B0114
:1009A00040E065E50E949404E70188E0E80EF11C50
:1009B000699140E0C8010E949404CE15DF05C1F79B
:1009C000DF91CF911F910F91FF90EF900895FC015F
:1009D00090810180F281E02DF8948181292F20956A
:1009E0008223818378943DE743E050E0315029F140
:1009F000DA011197F1F780818923C1F3F89482819C
:100A0000822382838181892B81837894ABE7B7E04D
:100A10001197F1F7F894818182238183A3E1B1E0FA
:100A20001197F1F78081982381E009F080E07894B4
:100A3000E3E6F6E03197F1F7089580E008956F92CC
:100A40007F928F929F92AF92BF92CF92DF92EF925E
:100A5000FF920F931F93CF93DF938C01EB01809153
:100A6000390390913A030E94E704882309F43FC0B8
:100A7000B8018091390390913A030E94C80440E084
:100A80006EEB8091390390913A030E9494047E01A9
:100A90006E0189E0C80ED11C8E01A0903903B09080
:100AA0003A0388E0882E912C712C66246394C5014A
:100AB0000E94410481117628660CE1E08E1A9108AB
:100AC000B1F7F80171928F01CE16DF0631F78091F0
:100AD000390390913A030E94E704813041F4F70111
:100AE00081917F01811105C0E017F107C1F790E006
:100AF00008C068E0CE010E942A0491E028852813EE
:100B0000F6CF892FDF91CF911F910F91FF90EF903A
:100B1000DF90CF90BF90AF909F908F907F906F901D
:100B20000895FC0101900020E9F73197AF01481BBF
:100B3000590BBC0187E892E00C9442018F929F927E
:100B4000AF92BF920F931F93CF93DF93CDB7DEB7D2
:100B5000A1970FB6F894DEBF0FBECDBF19A24230E9
:100B600008F44AE08E010F5D1F4F842E912CB12CAA
:100B7000A12CA50194010E945610E62FB901CA01CB
:100B8000EA30F4F4E05DD801EE938D01232B242BA1
:100B9000252B79F790E080E0109719F0CD010E94A5
:100BA0009105A1960FB6F894DEBF0FBECDBFDF91C1
:100BB000CF911F910F91BF90AF909F908F9008950C
:100BC000E95CE1CFCF92DF92EF92FF92CF93DF9378
:100BD0006B017C016DE287E892E00E94E201EC018A
:100BE00066277727CB016C197D098E099F094AE09A
:100BF0000E949E058C0F9D1FDF91CF91FF90EF907B
:100C0000DF90CF900895CF93DF930E949105EC0180
:100C10008CE491E00E9491058C0F9D1FDF91CF9194
:100C20000895BF92CF92DF92EF92FF920F931F939E
:100C3000CF93DF93EC01B62EC72E8D85811105C0B1
:100C4000CE010E94E70481110EC01B861D861C8602
:100C500080E0DF91CF911F910F91FF90EF90DF9097
:100C6000CF90BF90089540E060EFCE010E949404C1
:100C700001E0E12CD12C11E0CE010E944104F82EBC
:100C8000CE010E94410491E0F91218C0813099F51B
:100C90001134D8F2DB86D11002C081E08D878B81C0
:100CA000882399F22396EB2DFC2DCF0108962991EC
:100CB0002193E817F907D9F781E0CBCFEE2DF0E0CB
:100CC000F8120FC08B851817A0F4DE01AE0FBF1FFE
:100CD00013968C91802379F4F12C193008F41C8739
:100CE000D12EEC0FFD1F8381902F90958923838354
:100CF0000AC08113F1CFFE01EE0DF11D8381802B1F
:100D00008383FF24F3946F2DCE010E9465041F5F3F
:100D1000000F11F4E39401E087E08E1508F0ACCFEA
:100D2000B7CFFF920F931F93CF93DF938C01F62ED3
:100D3000E0913903F0913A031386158614861286E2
:100D40001186108617821682158214821382C0E0E3
:100D5000B8018091390390913A030E941106D82F6F
:100D6000882329F0FC1629F0CF5FFC1688F7D0E025
:100D700008C067E0C8010E942A04F801978189131E
:100D8000F3CF8D2FDF91CF911F910F91FF90089599
:100D900085ED8093BC0080915F0290916002A091EC
:100DA0006102B09162020796A11DB11D23E0B695C4
:100DB000A795979587952A95D1F72091BC0024FD9A
:100DC00003C010925D02089540915F02509160024D
:100DD0006091610270916202452B462B472B69F3AB
:100DE0000097A105B10541F02AE22A95F1F700C06C
:100DF0000197A109B109E1CF80915E020C949402A0
:100E00001F920F920FB60F9211242F933F938F933F
:100E10009F93AF93BF9380912F0290913002A09146
:100E20003102B091320230912E0223E0230F2D3790
:100E300058F50196A11DB11D20932E0280932F021B
:100E400090933002A0933102B0933202809133022A
:100E500090913402A0913502B09136020196A11D05
:100E6000B11D8093330290933402A0933502B09366
:100E70003602BF91AF919F918F913F912F910F902B
:100E80000FBE0F901F90189526E8230F0296A11D04
:100E9000B11DD2CF1F920F920FB60F9211242F9334
:100EA0003F934F935F936F937F938F939F93AF93F2
:100EB000BF93EF93FF9387E892E00E94C001FF91F8
:100EC000EF91BF91AF919F918F917F916F915F91C2
:100ED0004F913F912F910F900FBE0F901F9018953B
:100EE0001F920F920FB60F9211242F938F939F93FF
:100EF000EF93FF93E0919702F09198028081E09147
:100F00009D02F0919E0282FD1BC090818091A00203
:100F10008F5F8F732091A102821741F0E091A002B0
:100F2000F0E0E957FD4F958F8093A002FF91EF917C
:100F30009F918F912F910F900FBE0F901F9018953A
:100F40008081F4CF1F920F920FB60F9211242F932E
:100F50003F934F935F936F937F938F939F93AF9341
:100F6000BF93EF93FF938091B900887F803609F497
:100F70004AC0F0F5883209F4A7C018F5803109F4A9
:100F80009BC0B8F4882309F4F9C0883009F494C0F0
:100F9000FF91EF91BF91AF919F918F917F916F9151
:100FA0005F914F913F912F910F900FBE0F901F9027
:100FB0001895883109F488C0803251F780935B021C
:100FC00014C0803409F49DC040F48033B9F38833F1
:100FD000F9F680935B0285ECB0C0803509F485C0DA
:100FE000883509F496C0883499F60E94C806D0CF97
:100FF000883909F48CC038F5883729F050F48836E0
:1010000011F0803729F683E080935D021092190277
:1010100057C0883809F47BC0803919F0803809F04E
:10102000B7CF80911902803208F071C0E0911902A7
:1010300081E08E0F809319028091BB00F0E0E750B1
:10104000FE4F80833DC0803B39F0E0F4803A09F4E4
:1010500079C0883A09F09CCF84E080935D021092B9
:10106000F8011092F701E0911C02F0911D02099520
:101070008091F70181110FC081E08093F7011092F8
:10108000D70109C0803C09F4A6CF883C09F4A3CF5E
:10109000883B09F07DCFE091F80181E08E0F8093CD
:1010A000F801F0E0E952FE4F80818093BB009091FF
:1010B000F8018091F70129C0809138028093BB002C
:1010C00085EC8093BC0064CF90915A0280915902C4
:1010D000981758F5E0915A0281E08E0F80935A02DA
:1010E000F0E0E75CFD4F8081E9CFE0915A0281E0BA
:1010F0008E0F80935A028091BB00F0E0E75CFD4FB9
:10110000808390915A02809159029817C8F285E81D
:10111000D8CFE0915A0281E08E0F80935A028091DD
:10112000BB00F0E0E75CFD4F808380915C028111A1
:101130005CCF81E08093370284EA8093BC001092F8
:101140005D0226CF85EC8093BC0010925D028091F9
:101150001902803230F4E0911902F0E0E750FE4FBE
:1011600010826091190270E0E0911A02F0911B0266
:1011700089EF91E00995109219020ACF10925B0253
:1011800034CFCF93DF9310928A021092890288EEB7
:1011900093E0A0E0B0E080938B0290938C02A09348
:1011A0008D02B0938E022CE231E0309388022093BE
:1011B000870225EC30E0309394022093930224ECD4
:1011C00030E0309396022093950220EC30E030938B
:1011D00098022093970221EC30E030939A022093FA
:1011E000990222EC30E030939C0220939B0226EC83
:1011F00030E030939E0220939D021092A002109244
:10120000A1021092A2021092A30210922703109240
:1012100026038093280390932903A0932A03B09375
:101220002B038EE391E0909325038093240340EDFC
:1012300050E0FA0164918CEB90E0FC0124912223B0
:10124000C1F030E0220F331FF901EA55FF4FA5919D
:10125000B491F901E456FF4FC591D4917FB7F8944A
:101260003C91262F209532233C93388123232883D9
:101270007FBFFA01449140934703FC018491E82F1A
:10128000F0E0EE0FFF1FE055FF4F85919491909392
:101290004903809348031092520310925403109212
:1012A0005303109251031092500310924F03109267
:1012B0004E0310924D0310924C0310924B03109268
:1012C0004A0310923703109238031092300389E0DA
:1012D0008093330381E080933403809335038093BC
:1012E00036031092310310924603109245038FEF9C
:1012F000809343031092440387E493E090933A036E
:1013000080933903DF91CF910895CF93DF93CDB7C9
:10131000DEB761970FB6F894DEBF0FBECDBF7894ED
:1013200084B5826084BD84B5816084BD85B58260EA
:1013300085BD85B5816085BD80916E00816080939B
:101340006E00109281008091810082608093810004
:101350008091810081608093810080918000816014
:10136000809380008091B10084608093B10080916F
:10137000B00081608093B00080917A008460809397
:101380007A0080917A00826080937A0080917A005E
:10139000816080937A0080917A00806880937A00DF
:1013A0001092C10013E001E0E0913903F0913A039B
:1013B0001386158614861286118610861782168269
:1013C000158214821382109237031092380362E35D
:1013D00070E080E090E00E940D01BE01665F7F4FEB
:1013E0008091390390913A030E941106882309F4F1
:1013F0007AC067E0CE010A960E942A04998989136F
:10140000ECCF809137038F5F809337038A858832D2
:1014100031F008F04EC0803111F08232F1F6809147
:1014200038038F5F8093380380913003811128C087
:101430008091390390913A030E94E704BE01665FF0
:101440007F4F8091390390913A030E94C80440E095
:1014500064EB8091390390913A030E949404809147
:10146000390390913A030E944104F82E8091390388
:1014700090913A030E94E704F11002C000933003F8
:101480008A85803109F1BE016F5F7F4FCE010A96D8
:101490000E941F05882359F08D819A859B3311F492
:1014A00087FD12C08F3391F058F48F31C1F080E086
:1014B0000EC08B3309F4B3CF823409F08ECFAFCF97
:1014C0008F3579F08F3799F78CE001C08AE09091E1
:1014D0003303981708F081CF809333037ECF89E0E0
:1014E000F6CF8BE0F4CF80913703811103C0115008
:1014F00009F05ACFE0919702F091980282E0808340
:10150000E0919302F09194021082E0919502F091A3
:1015100096028FEC808310929F02E0919B02F091E3
:101520009C0286E08083E0919902F0919A0280818A
:1015300080618083E0919902F0919A0280818860B5
:101540008083E0919902F0919A0280818068808383
:10155000E0919902F0919A0280818F7D808364EFFF
:1015600071E080E090E00E940D018FE491E00E9424
:10157000910583E691E00E94910560913703862FE3
:1015800090E0909329028093280270E090E080E040
:101590004AE00E949E058AE691E00E9403068EE4DE
:1015A00091E00E940306812C912C5401839410E059
:1015B00000E028E2C22E22E0D22E809128029091F3
:1015C000290208171907D4F584E791E00E949105D4
:1015D0004AE0C501B4010E949E058CE791E00E949B
:1015E000910580913703081728F4602F80E292E07C
:1015F0000E94910680E2E82E82E0F82EF7018081B9
:10160000803120F480E891E00E949105F70161911A
:101610007F0170E090E080E040E10E949E05CE14E2
:10162000DF0461F78CE491E00E9491050F5F1F4F8A
:10163000FFEF8F1A9F0AAF0ABF0ABFCF10921F0297
:1016400010921E0210926402109286020E9476028C
:1016500080E491E090931D0280931C0281E491E06C
:1016600090931B0280931A0264EF71E080E090E097
:101670000E940D0181E08093630288E380938502DC
:1016800090E080E00E94220487E490E00E9422041F
:101690000E94B502B4E62B2E312C1AE0412E512CBB
:1016A00000E0602E00E0702E8091390390913A03A3
:1016B0000E94E70440E06CEC8091390390913A037A
:1016C0000E9494044091300364E480913903909126
:1016D0003A030E9494048FB7F89480902F02909060
:1016E0003002A0903102B09032028FBF809134035B
:1016F000882329F180913503882309F451C0809112
:10170000300381114DC08091390390913A030E94BA
:1017100041048130A1F02FB7F89480912F0290916D
:101720003002A0913102B09132022FBF881999097D
:10173000AA09BB098E3E9240A105B10520F3109283
:101740002A0210922B0210922C0210922D02F12CE0
:10175000E12C6091280270912902E616F7060CF040
:10176000EBC080913703E81608F443C020E030E076
:101770004EEF52EC60912A0270912B0280912C0264
:1017800090912D020E94000E60932A0270932B020A
:1017900080932C0290932D022FEFE21AF20AD9CFF8
:1017A000E0913303E9508EEE92E0E33038F4F0E05C
:1017B000EE0FFF1FE050FF4F808191814C01B12C53
:1017C000A12C80913103882329F060E080913203BD
:1017D0000E949C00C501B4010E940D01809131035B
:1017E000882309F4ACCF61E0809132030E949C0011
:1017F000A6CF6E2DCE010A960E949106882309F489
:10180000B5CFBE016F5F7F4FCE010A960E941F05C4
:10181000882309F4ABCF9A81812C912C540197FF36
:1018200006C0812C912CF8EFAF2EBB24BA944A85C8
:1018300009814B33E9F58D8187FF3AC000FD96CFD2
:1018400010E030E020E073E0000F111F221F331F73
:101850007A95D1F7007E177022273327892F90E0E1
:10186000B0E0A0E0EBE0880F991FAA1FBB1FEA952C
:10187000D1F7802B912BA22BB32B8C019D01082932
:1018800019292A293B290138F4EE1F07FFEF2F07FA
:101890003F070CF46BCFC901B8010E941B0F20E079
:1018A00030E040E05CE30E94D00F9B01AC0162CFCE
:1018B000892F90E0982F8827990F990F990F58E05A
:1018C000059F80011124082B192B012E000C220BDF
:1018D000330B082919292A293B294031A1F66885AB
:1018E000662389F270E08F81FB01E81BF109CF01CB
:1018F0009695982F8827979587950E944210CB013F
:10190000770FAA0BBB0B53E0000F111F221F331FD1
:101910005A95D1F700782770332700521109210911
:101920003109800F911FA21FB31F95018401082B5D
:10193000192B2A2B3B2BA7CF072E000C880B990BBA
:101940000E941B0F9B01AC0160912A0270912B0237
:1019500080912C0290912D020E94710E60932A02B8
:1019600070932B0280932C0290932D0282E891E0D9
:101970000E94910580902A0290902B02A0902C0248
:10198000B0902D02A5019401C501B4010E943D1043
:10199000882309F4A2C082EA91E00E9491058EEAB0
:1019A00091E00E9491058EE491E00E94030620E000
:1019B00030E048EC52E460912A0270912B02809151
:1019C0002C0290912D020E94D00F0E94E30E8B01F9
:1019D000CB0168EE73E00E9442107B0148E15CEFAE
:1019E000649FC001659F900D749F900D1124800F1E
:1019F000911FB1010E9442105B0188EE93E0E89EC6
:101A0000F001E99EF00DF89EF00D112444E6469F8A
:101A1000C001479F900D1124E80FF91FC8018E1BCC
:101A20009F0BB2010E9442104B014AE0469FC00149
:101A3000479F900D1124E80FF91F0E1B1F0B81E02B
:101A40008093630288E3809385021092640210926F
:101A5000860281E090E00E942204000F111FF8012D
:101A6000EA5FFE4F808191810E942204F401EE0F13
:101A7000FF1FEA5FFE4F808191810E942204F501E1
:101A8000EE0FFF1FEA5FFE4F8081918180589F4FCC
:101A90000E942204F701EE0FFF1FEA5FFE4F8081D4
:101AA00091810E9422040E94B5026AE070E080E009
:101AB00090E00E940D0168EE73E080E090E00E94EB
:101AC0000D016114710409F4EFCD0E94AC0188236B
:101AD00009F4EACD0E940000E7CD75016401E894A5
:101AE000F7F82FEF3FEF4FE75FE7C701B6010E941E
:101AF0003D1081110DC02FEF3FEF4FE75FE7C701AA
:101B0000B6010E946C0E18161CF486EA91E045CFCF
:101B10002FEF3FEF4FE75FE4C501B4010E94CB0F09
:101B200018161CF48AEA91E038CF2FEF3FEF4FE709
:101B30005FECC501B4010E946C0E87FDF3CF20E07D
:101B400030E0A901C501B4010E946C0E87FF09C0F5
:101B50006DE287E892E00E94E201B7FAB094B7F82C
:101B6000B0942AE037ED43EA5BE3C501B4010E947B
:101B7000000E6B017C010E94EA0E4B015C010E9489
:101B8000190F9B01AC01C701B6010E94FF0D6B014B
:101B90007C014AE0C501B4010E949E056EE287E81F
:101BA00092E00E94E20120E030E040E251E4C7010F
:101BB000B6010E94D00F6B017C010E94EA0E4B011E
:101BC000B12CA12C4AE0C501B4010E949E05C501BB
:101BD000B4010E94190F9B01AC01C701B6010E941C
:101BE000FF0D20E030E040E251E40E94D00F0E945F
:101BF000EA0E90E080E04AE00E949E05D0CE505868
:101C0000BB27AA270E94170E0C94910F0E94830FE6
:101C100038F00E948A0F20F039F49F3F19F426F41F
:101C20000C94800F0EF4E095E7FB0C947A0FE92FEB
:101C30000E94A20F58F3BA1762077307840795072B
:101C400020F079F4A6F50C94C40F0EF4E0950B2E59
:101C5000BA2FA02D0B01B90190010C01CA01A001FE
:101C60001124FF27591B99F0593F50F4503E68F159
:101C70001A16F040A22F232F342F4427585FF3CF9A
:101C8000469537952795A795F0405395C9F77EF46B
:101C90001F16BA0B620B730B840BBAF09150A1F0B4
:101CA000FF0FBB1F661F771F881FC2F70EC0BA0F3A
:101CB000621F731F841F48F4879577956795B795C2
:101CC000F7959E3F08F0B0CF9395880F08F09927BD
:101CD000EE0F9795879508950E94560F08F481E0BE
:101CE00008950E94850E0C94910F0E948A0F58F05F
:101CF0000E94830F40F029F45F3F29F00C947A0F83
:101D000051110C94C50F0C94800F0E94A20F68F320
:101D10009923B1F3552391F3951B550BBB27AA27A4
:101D200062177307840738F09F5F5F4F220F331FDE
:101D3000441FAA1FA9F335D00E2E3AF0E0E832D0A6
:101D400091505040E695001CCAF72BD0FE2F29D0A9
:101D5000660F771F881FBB1F261737074807AB077B
:101D6000B0E809F0BB0B802DBF01FF2793585F4FF0
:101D70003AF09E3F510578F00C947A0F0C94C50F01
:101D80005F3FE4F3983ED4F3869577956795B795D2
:101D9000F7959F5FC9F7880F911D9695879597F9DD
:101DA0000895E1E0660F771F881FBB1F6217730756
:101DB0008407BA0720F0621B730B840BBA0BEE1F6B
:101DC00088F7E09508950E94EA0E6894B1110C948A
:101DD000C50F08950E94AA0F88F09F5798F0B92F59
:101DE0009927B751B0F0E1F0660F771F881F991F50
:101DF0001AF0BA95C9F714C0B13091F00E94C40F1F
:101E0000B1E008950C94C40F672F782F8827B85F2E
:101E100039F0B93FCCF3869577956795B395D9F7A7
:101E20003EF490958095709561957F4F8F4F9F4FB1
:101E30000895E89409C097FB3EF4909580957095BD
:101E400061957F4F8F4F9F4F9923A9F0F92F96E906
:101E5000BB279395F695879577956795B795F1117B
:101E6000F8CFFAF4BB0F11F460FF1BC06F5F7F4F18
:101E70008F4F9F4F16C0882311F096E911C077232A
:101E800021F09EE8872F762F05C0662371F096E833
:101E9000862F70E060E02AF09A95660F771F881F02
:101EA000DAF7880F9695879597F90895990F0008A6
:101EB000550FAA0BE0E8FEEF16161706E807F9071C
:101EC000C0F012161306E407F50798F0621B730BB7
:101ED000840B950B39F40A2661F0232B242B252B38
:101EE00021F408950A2609F4A140A6958FEF811DDB
:101EF000811D089597F99F6780E870E060E008957C
:101F00009FEF80EC089500240A9416161706180611
:101F10000906089500240A941216130614060506ED
:101F20000895092E0394000C11F4882352F0BB0F7E
:101F300040F4BF2B11F460FF04C06F5F7F4F8F4FE1
:101F40009F4F089557FD9058440F551F59F05F3F1C
:101F500071F04795880F97FB991F61F09F3F79F0CB
:101F600087950895121613061406551FF2CF46954D
:101F7000F1DF08C0161617061806991FF1CF8695CF
:101F80007105610508940895E894BB2766277727B3
:101F9000CB0197F908950E94560F08F48FEF08952A
:101FA0000E94E30F0C94910F0E94830F38F00E945F
:101FB0008A0F20F0952311F00C947A0F0C94800F67
:101FC00011240C94C50F0E94A20F70F3959FC1F3CA
:101FD000950F50E0551F629FF001729FBB27F00DD7
:101FE000B11D639FAA27F00DB11DAA1F649F66272C
:101FF000B00DA11D661F829F2227B00DA11D621F7B
:10200000739FB00DA11D621F839FA00D611D221F34
:10201000749F3327A00D611D231F849F600D211D18
:10202000822F762F6A2F11249F5750409AF0F1F09B
:1020300088234AF0EE0FFF1FBB1F661F771F881F04
:1020400091505040A9F79E3F510580F00C947A0FB3
:102050000C94C50F5F3FE4F3983ED4F386957795D3
:102060006795B795F795E7959F5FC1F7FE2B880FAA
:10207000911D9695879597F908950E94560F880BA4
:10208000990B089597FB072E16F4009407D077FD5F
:1020900009D00E94781007FC05D03EF490958195F8
:1020A0009F4F0895709561957F4F0895A1E21A2E74
:1020B000AA1BBB1BFD010DC0AA1FBB1FEE1FFF1FEC
:1020C000A217B307E407F50720F0A21BB30BE40B3C
:1020D000F50B661F771F881F991F1A9469F7609583
:1020E0007095809590959B01AC01BD01CF0108953D
:1020F000AA1BBB1B51E107C0AA1FBB1FA617B7072E
:1021000010F0A61BB70B881F991F5A95A9F7809549
:102110009095BC01CD010895EE0FFF1F0590F4913D
:08212000E02D0994F894FFCFB3
:102128005E00BC0077013F0006005B004F006600C0
:102138006D007D0007007F006F0077007C0039008C
:102148005E0079007100000000000000E201420119
:102158006F012F02A0017E01920100000000F3032D
:10216800C60327049C03BF03AC039D030D0A004C60
:102178006F636174696E6720646576696365732E41
:102188002E2E00466F756E642000206465766963A4
:1021980065732E0053656E736F722000203A20001D
:1021A800300054656D7065726174757265206D6F6D
:1021B80079656E6E652064752062617373696E203F
:1021C8003A006E616E00696E66006F7666002043A5
:0621D80020207C20200005
:00000001FF
