:100000000C945D000C94AA080C9483080C94850051
:100010000C9485000C9485000C9485000C9485004C
:100020000C9485000C9485000C9485000C9485003C
:100030000C9485000C9485000C9485000C9485002C
:100040000C9439080C9485000C9485000C94850060
:100050000C9485000C9485000C9485000C9485000C
:100060000C94D1080C9485000000000024002700A7
:100070002A0000000000250028002B0004040404CE
:100080000404040402020202020203030303030342
:10009000010204081020408001020408102001021F
:1000A00004081020000000080002010000030407FB
:1000B0000000000000000000F00911241FBECFEF77
:1000C000D8E0DEBFCDBF12E0A0E0B1E0E4EFF3E2A4
:1000D00002C005900D92AC33B107D9F723E0ACE331
:1000E000B2E001C01D92A432B207E1F710E0CDE505
:1000F000D0E004C02197FE010E94B910CC35D10791
:10010000C9F70E940C0A0C94F8110C940000089591
:10011000089581E090E09093450180934401089513
:10012000AF92BF92CF92DF92EF92FF920F931F9305
:10013000CF93DF936C017B018B01040F151FEB0143
:100140005E01AE18BF08C017D10759F06991D601FA
:10015000ED91FC910190F081E02DC6010995892B6C
:1001600079F7C501DF91CF911F910F91FF90EF902B
:10017000DF90CF90BF90AF90089590E0FC01EC55D8
:10018000FF4F2491FC01E057FF4F3491FC01E458EC
:10019000FF4FE491EE23C9F0222339F0233001F11F
:1001A000A8F4213019F1223029F1F0E0EE0FFF1F01
:1001B000EE58FF4FA591B4918FB7F894EC9161116F
:1001C00026C030953E233C938FBF08952730A9F079
:1001D0002830C9F0243049F7809180008F7D03C01A
:1001E000809180008F7780938000DFCF84B58F77F8
:1001F00084BDDBCF84B58F7DFBCF8091B0008F773E
:100200008093B000D2CF8091B0008F7DF9CF3E2B8C
:10021000DACFCF93DF9390E0FC01E057FF4F2491BA
:1002200084589F4FFC0184918823D1F090E0880F7F
:10023000991FFC01E859FF4FA591B491FC01EE58BC
:10024000FF4FC591D49161110EC09FB7F8948C9166
:10025000E22FE0958E238C932881E223E8839FBFD1
:10026000DF91CF9108958FB7F894EC91E22BEC9346
:100270008FBFF6CF3FB7F8948091F1029091F202D0
:10028000A091F302B091F40226B5A89B05C02F3FC0
:1002900019F00196A11DB11D3FBFBA2FA92F982FAC
:1002A0008827BC01CD01620F711D811D911D42E0A7
:1002B000660F771F881F991F4A95D1F708958F926F
:1002C0009F92AF92BF92CF92DF92EF92FF924B013B
:1002D0005C010E943A016B017C010E943A016C1999
:1002E0007D098E099F09683E734081059105A8F339
:1002F00021E0821A9108A108B10888EEC80E83E0B7
:10030000D81EE11CF11C81149104A104B10429F749
:10031000FF90EF90DF90CF90BF90AF909F908F9025
:10032000089508952091A202260F3327331F21320A
:100330003105ECF42091C602FC0190E080E024300D
:1003400069F082E00895A091A2022191AC014E577C
:100350005D4FA40FB52FB11D2C930196861798F30E
:100360008091A202680F6093A20280E0089581E06C
:1003700008951092C60281E08093C8021092C702CD
:1003800061E082E10E94BD0061E083E10E94BD0066
:10039000E9EBF0E080818E7F808380818D7F808398
:1003A00088E48093B80085E48093BC00089510929F
:1003B0000C0310920B0310920A03109209030E947F
:1003C000B90187E890E0909308038093070388E8D9
:1003D00090E090930603809305030895CF93DF93F5
:1003E00091E0909381028823B9F0C091B800D09138
:1003F000BA008091BC008A7B8093BC0060E082E1FF
:100400000E94BD0060E083E10E94BD000E94B9012E
:10041000D093BA00C093B800DF91CF9108950895AA
:10042000E0910C0380910B03E81730F4F0E0E45AFC
:10043000FD4F808190E008958FEF9FEF0895909198
:100440000C0380910B032FEF3FEF981748F4E92F2F
:10045000F0E0E45AFD4F208130E09F5F90930C0361
:10046000C901089580910B0390910C03891B990B8E
:100470000895CF92DF92EF92FF920F931F93CF9345
:10048000DF937C01CB018A012091F602222389F0BF
:10049000EB016B01C40ED51ECC15DD0569F0699129
:1004A000D701ED91FC910190F081E02DC7010995F4
:1004B000F3CF642F0E949201C801DF91CF911F9169
:1004C0000F91FF90EF90DF90CF900895CF93DF933F
:1004D0001F92CDB7DEB769832091F6022223F9F08F
:1004E00020910903203258F021E030E0FC013383F1
:1004F000228390E080E00F90DF91CF91089580916A
:100500000A03E82FF0E0E45CFD4F998190838F5F50
:1005100080930A038093090381E090E0ECCF61E0CF
:10052000CE0101960E949201F7CFCF92DF92EF9217
:10053000FF920F931F93CF93DF93D091090381E034
:10054000D13208F09CC0C091F5020E943A016B01C3
:100550007C018091C60281116CC082E08093C6024A
:1005600081E08093C8028FEF8093C5021092EA0267
:10057000D093E902ACE3B2E0E9ECF2E080E0D8131A
:100580008DC01092EB028091EB02CC0FC82BC09370
:10059000EB028091C702813009F084C01092C7023B
:1005A0000E943A016B017C018091EB028093BB00B9
:1005B00080917D0290917E02A0917F02B091800295
:1005C000892B8A2B8B2BA1F00E943A0100917D028E
:1005D00010917E0220917F02309180026C197D097A
:1005E0008E099F09061717072807390708F442C024
:1005F0008091BC0083FDD8CF85EC8093BC000E9425
:100600003A016B017C018091C602823009F44CC032
:100610008091C5028F3F09F469C08091C502803284
:1006200009F466C08091C502803309F463C084E098
:1006300026C080917D0290917E02A0917F02B091B0
:100640008002892B8A2B8B2B09F483CF0E943A01DD
:1006500000917D0210917E0220917F0230918002F4
:100660006C197D098E099F09061717072807390796
:1006700008F06FCF80917C020E94EE0185E010921D
:100680000A03109209031092F602DF91CF911F9195
:100690000F91FF90EF90DF90CF9008959D919193EF
:1006A0008F5F6DCF85EEA9CF80917D0290917E0204
:1006B000A0917F02B0918002892B8A2B8B2B09F4A9
:1006C000A2CF0E943A0100917D0210917E022091FA
:1006D0007F02309180026C197D098E099F090617EF
:1006E00017072807390708F08ECFC4CF80E0C7CF9F
:1006F00082E0C5CF83E0C3CF1F93CF93DF93EC019C
:10070000142F8B859C852C8131E03093F602209349
:10071000F50210920A0310920903DC01ED91FC919D
:100720000190F081E02D09958B859C85DC01ED9190
:10073000FC910190F081E02D612F09958B859C85BE
:10074000DF91CF911F910C9495020F931F93CF933C
:10075000DF93EC01042F122F8C81462F803391F40C
:1007600066E0CE010E947C03402F67E0CE010E942C
:100770007C03412F68E0CE01DF91CF911F910F9153
:100780000C947C0364E0CE010E947C03402F63E064
:10079000CE010E947C03412F62E0EDCFCF93DF9327
:1007A000242F90911F039923D1F091E0811101C072
:1007B00090E0D22FC62F692F8CE00E94BD0061E02F
:1007C000C11101C060E08AE00E94BD0061E0D1116A
:1007D00001C060E088E0DF91CF910C94BD00462F0E
:1007E000682F80911D0390911E03DF91CF910C948F
:1007F000A503CF92DF92EF92FF920F931F93CF93B7
:10080000DF936C017B0181E08093F6028EE380939D
:10081000F50210920A0310920903EB01042F10E075
:10082000D6011B968D919C919E012E193F09201790
:1008300031074CF46991DC01ED91FC910190F0815C
:10084000E02D0995EDCFDF91CF911F910F91FF9092
:10085000EF90DF90CF900C949502CF93DF9300D070
:10086000CDB7DEB720E429836A8342E0BE016F5F23
:100870007F4F0E94F90381E090E00F900F90DF918D
:10088000CF910895CF93DF9300D0CDB7DEB720E8A6
:1008900029836A8342E0BE016F5F7F4F0E94F903A4
:1008A0000F900F90DF91CF910895CF93C62F672FB0
:1008B000FC01848191E09093F6028093F5021092FE
:1008C0000A03109209038DE093E00E9466026C2FE8
:1008D0008DE093E00E9466028DE093E0CF910C944E
:1008E0009502CF93DF93CDB7DEB728970FB6F89474
:1008F000DEBF0FBECDBF28E0EEE4F1E0DE011196D1
:1009000001900D922A95E1F7FC012085241708F447
:100910004FEF50E0440F551F21E030E02C0F3D1FFA
:10092000420F531FFA012081620F606870E0289621
:100930000FB6F894DEBF0FBECDBFDF91CF910C9400
:100940005504CF93DF93EC0161E070E00E94550401
:100950008BE39FE10197F1F78985882339F040E027
:1009600060E0CE01DF91CF910C947104DF91CF91C3
:10097000089580911F03882331F080911B0390918B
:100980001C030C94A10461E080911D0390911E034F
:100990000E9442048BE39FE10197F1F7089570E014
:1009A00070640E94550481E090E00895089590E0FD
:1009B00080E00895CF92DF92EF92FF920F931F9302
:1009C000CF93DF93CDB7DEB729970FB6F894DEBF8C
:1009D0000FBECDBFFC018A0184819A01285F3F4F81
:1009E0007901882359F1C080D180615038E0639F3C
:1009F000B00111246064062E000C770BC6010E9422
:100A00005504D8016D918D01D601ED91FC910190B5
:100A1000F081E02DC60109950E151F0591F7299665
:100A20000FB6F894DEBF0FBECDBFDF91CF911F91FF
:100A30000F91FF90EF90DF90CF900895C280D38008
:100A40006770B8E06B9FB00111246064C6010E941A
:100A5000420480E48983F801DE01129681918D932E
:100A6000EE15FF05D9F749E0BE016F5F7F4FC60164
:100A70000E94F903D4CFFC018481882351F0808146
:100A800091816150DC01ED91FC910190F081E02DAC
:100A9000099482819381F6CFCF93DF9300D0CDB7B5
:100AA000DEB7FC018481882349F0808191810E9416
:100AB00071040F900F90DF91CF91089582819381FF
:100AC00041110BC0606820E829836A8342E0BE01BF
:100AD0006F5F7F4F0E94F903ECCF606CF4CFCF9330
:100AE000C82F40E0682F8091190390911A030E944B
:100AF0004C0560E28091190390911A030E943B0516
:100B000060E28091190390911A030E943B0560E214
:100B10008091190390911A030E943B0541E06C2FCC
:100B20008091190390911A030E944C0560E2809114
:100B3000190390911A030E943B0560E2809119030A
:100B400090911A030E943B0560E2809119039091F5
:100B50001A03CF910C943B05CF93C62F2091190314
:100B600030911A0301978930910580F4FC01E35418
:100B7000FA4F40E0C9010C94B910DA0509063E06A7
:100B800050065B067C06A406D306DE0640E0C901DB
:100B90000E944C0562E08091190390911A030E9413
:100BA0003B0568E08091190390911A030E943B0570
:100BB00061E0B3C00E944C0560E2809119039091FE
:100BC0001A030E943B0560E28091190390911A0379
:100BD0000E943B0561E08091190390911A030E94E5
:100BE0003B0541E06C2F8091190390911A030E94FC
:100BF0004C0560E28091190390911A030E943B0515
:100C000060E28091190390911A030E943B0561E014
:100C10002EC00E944C0565E08091190390911A0343
:100C20000E943B0563E08091190390911A030E9492
:100C30003B0561E08091190390911A030E943B05E6
:100C400041E06C2F8091190390911A030E944C058A
:100C500062E08091190390911A030E943B0566E0BF
:100C60008091190390911A030E943B0566E08091E0
:100C7000190390911A03CF910C943B050E944C05E7
:100C800065E08091190390911A030E943B0563E08F
:100C90008091190390911A030E943B0561E01CC0EA
:100CA0000E944C0562E08091190390911A030E9402
:100CB0003B0566E089CF0E944C0562E080911903F4
:100CC00090911A030E943B0563E080911903909173
:100CD0001A030E943B0564E08091190390911A0366
:100CE0000E943B0541E06C2F8091190390911A03FB
:100CF0000E944C0567E020C00E944C0562E0809194
:100D0000190390911A030E943B0563E08091190337
:100D100090911A030E943B0564E080911903909121
:100D20001A030E943B0541E06C2F809119039091BA
:100D30001A030E944C0562E08091190390911A03F6
:100D40000E943B0566E05DCF0E944C0568E0809103
:100D5000190390911A030E943B0568E080911903E2
:100D600090911A030E943B0561E0809119039091D4
:100D70001A030E943B0541E06C2F8091190390916A
:100D80001A030E944C0560E28091190390911A03A6
:100D90000E943B0562E08091190390911A030E9422
:100DA0003B0560E264CF0E944C0562E0809119032C
:100DB00090911A030E943B0563E0F4CE0E944C051B
:100DC00062E05FCFCF93C82F40E0682F8091190376
:100DD00090911A030E944C0560E280911903909152
:100DE0001A030E943B0562E08091190390911A0357
:100DF0000E943B0561E08091190390911A030E94C3
:100E00003B0562E08091190390911A030E943B0513
:100E100061E08091190390911A030E943B0541E023
:100E20006C2F8091190390911A030E944C0560E287
:100E30008091190390911A030E943B0562E0809112
:100E4000190390911A030E943B0560E280911903F7
:100E500090911A030E943B0560E2809119039091E2
:100E60001A030E943B0561E08091190390911A03D7
:100E7000CF910C943B05FB0101900020E9F73197DD
:100E8000AF01461B570BDC01ED91FC910280F38111
:100E9000E02D0994CF9380911F03C4E0882361F073
:100EA00065EA71E080911B0390911C030E943B074F
:100EB000C150B1F7CF91089565EA71E080911D03AB
:100EC00090911E030E943B07C150B1F7F3CFFC0184
:100ED0008481882321F0808191810C943B07828159
:100EE0009381FBCFCF93DF93EC01C03187E2D8072A
:100EF00014F140E060E08091190390911A030E9480
:100F00004C0560E871E08091190390911A030E94EA
:100F1000670741E060E08091190390911A030E94F5
:100F20004C056DE871E08091190390911A03DF91EF
:100F3000CF910C9467071C161D06DCF040E060E0C2
:100F40008091190390911A030E944C0560E871E0AA
:100F50008091190390911A030E94670741E060E0B5
:100F60008091190390911A030E944C056AE971E07F
:100F7000DACFC83E83E0D8078CF1CE0168EE73E08B
:100F80000E94A510CB0170E060E00E94AC05CE018C
:100F900064E670E00E94A510CB016AE070E00E9458
:100FA000A51063E070E00E94AC052AE030E0CE01BD
:100FB000B9010E94A510CB01B9010E94A51066E0FD
:100FC00070E00E94AC05CE016AE070E00E94A510BE
:100FD00069E070E0DF91CF910C94AC0590E080E087
:100FE0000E946F05C436D10594F683E090E00E941C
:100FF0006F05CA30D105CCF686E090E00E946F05FF
:10100000E2CF85ED8093BC0080917D0290917E02BD
:10101000A0917F02B09180020796A11DB11D23E02F
:10102000B695A795979587952A95D1F72091BC00FD
:1010300024FD03C01092C602089540917D02509194
:101040007E0260917F0270918002452B462B472BD8
:1010500069F30097A105B10541F025E32A95F1F761
:1010600000000197A109B109E1CF80917C020C94A5
:10107000EE011F920F920FB60F9211242F933F9300
:101080008F939F93AF93BF938091ED029091EE0267
:10109000A091EF02B091F0023091EC0223E0230F17
:1010A0002D3758F50196A11DB11D2093EC028093B8
:1010B000ED029093EE02A093EF02B093F0028091C4
:1010C000F1029091F202A091F302B091F402019624
:1010D000A11DB11D8093F1029093F202A093F3023F
:1010E000B093F402BF91AF919F918F913F912F9157
:1010F0000F900FBE0F901F90189526E8230F0296B1
:10110000A11DB11DD2CF1F920F920FB60F921124C5
:101110002F933F934F935F936F937F938F939F93FF
:10112000AF93BF93EF93FF93E0910201F09103011E
:101130000995FF91EF91BF91AF919F918F917F9111
:101140006F915F914F913F912F910F900FBE0F9034
:101150001F9018951F920F920FB60F9211242F9384
:101160003F934F935F936F937F938F939F93AF932F
:10117000BF93EF93FF93E0910001F0910101099576
:10118000FF91EF91BF91AF919F918F917F916F915F
:101190005F914F913F912F910F900FBE0F901F9035
:1011A00018951F920F920FB60F9211242F933F9311
:1011B0004F935F936F937F938F939F93AF93BF935F
:1011C000EF93FF938091B900887F803609F44AC07D
:1011D000F0F5883209F4A7C018F5803109F49BC0F6
:1011E000B8F4882309F4F9C0883009F494C0FF9159
:1011F000EF91BF91AF919F918F917F916F915F918F
:101200004F913F912F910F900FBE0F901F90189507
:10121000883109F488C0803251F78093C50214C028
:10122000803409F49DC040F48033B9F38833F9F673
:101230008093C50285ECB0C0803509F485C088353F
:1012400009F496C0883499F60E940108D0CF8839F5
:1012500009F48CC038F5883729F050F4883611F03D
:10126000803729F683E08093C6021092C40257C0EB
:10127000883809F47BC0803919F0803809F0B7CF7D
:101280008091C402803208F071C0E091C40281E014
:101290008E0F8093C4028091BB00F0E0EC55FD4FAF
:1012A00080833DC0803B39F0E0F4803A09F479C096
:1012B000883A09F09CCF84E08093C6021092A30282
:1012C0001092A202E0910703F09108030995809122
:1012D000A20281110FC081E08093A20210928202CB
:1012E00009C0803C09F4A6CF883C09F4A3CF883B11
:1012F00009F07DCFE091A30281E08E0F8093A302DD
:10130000F0E0EE57FD4F80818093BB009091A302E7
:101310008091A20229C08091EB028093BB0085ECF2
:101320008093BC0064CF9091EA028091E902981703
:1013300058F5E091EA0281E08E0F8093EA02F0E036
:10134000E753FD4F8081E9CFE091EA0281E08E0F03
:101350008093EA028091BB00F0E0E753FD4F808369
:101360009091EA028091E9029817C8F285E8D8CFF7
:10137000E091EA0281E08E0F8093EA028091BB0047
:10138000F0E0E753FD4F80838091C80281115CCF6C
:1013900081E08093C70284EA8093BC001092C60269
:1013A00026CF85EC8093BC001092C6028091C402C7
:1013B000803230F4E091C402F0E0EC55FD4F108231
:1013C0006091C40270E0E0910503F091060384EAA5
:1013D00092E009951092C4020ACF1092C50234CF50
:1013E000EDE0F3E01382128288EE93E0A0E0B0E03B
:1013F00084839583A683B78382E791E0918380837A
:10140000EBE1F3E011821082138212821482F093D6
:101410001A03E09319030895789484B5826084BD1B
:1014200084B5816084BD85B5826085BD85B58160E8
:1014300085BD80916E00816080936E001092810066
:101440008091810082608093810080918100816021
:1014500080938100809180008160809380008091E2
:10146000B10084608093B1008091B000816080936E
:10147000B00080917A00846080937A0080917A0035
:10148000826080937A0080917A00816080937A00F4
:1014900080917A00806880937A001092C10089E878
:1014A00090E09093010180930001809169008C7F0E
:1014B000826080936900E89A60E08EE00E940901F2
:1014C0000E94D70164EF71E080E090E00E945F012C
:1014D00061E08CE00E94090161E08AE00E9409015C
:1014E00061E088E00E940901D0E010E0C1E001E085
:1014F0000093F602C093F50210920A0310920903BA
:101500008DE093E00E949502811109C0C83431F04A
:10151000CE3311F0C23619F4D1E001C011E0CF5F33
:10152000CF3731F7112309F45CC181E080931F03A9
:101530008CE090E00E94D310EC011B821A8286E6B8
:1015400091E099838883198688E48C8310E11A8757
:1015500082E08B87D0931C03C0931B030E94D701AA
:101560001D838B85823010F098E19D8388878BE303
:101570009DE00197F1F76D81606270E0CE010E94FD
:1015800055048BE496E40197F1F76D81606270E099
:10159000CE010E94550483E592E00197F1F76D8139
:1015A000606270E0CE010E9455046D81606270E05F
:1015B000CE010E94550484E08E836CE070E0CE0181
:1015C0000E945504CE010E94A10482E08F8366E050
:1015D00070E0CE010E94550462E070E0CE010E94EE
:1015E00055048BE39FE10197F1F764EF71E080E030
:1015F00090E00E945F0164EF71E080E090E00E9463
:101600005F014CE351E061E08091190390911A036E
:101610000E94DA0444E351E062E080911903909162
:101620001A030E94DA044CE251E063E0809119034E
:1016300090911A030E94DA0444E251E064E0809140
:10164000190390911A030E94DA044CE151E065E01D
:101650008091190390911A030E94DA0444E151E049
:1016600066E08091190390911A030E94DA044CE01D
:1016700051E067E08091190390911A030E94DA0407
:1016800044E051E068E08091190390911A030E94B0
:10169000DA0440E060E08BE193E00E944C0567EAE9
:1016A00071E08BE193E00E94670741E063E08BE12A
:1016B00093E00E944C0568EB71E08BE193E00E949F
:1016C0006707D0E0C0E040E06C2F8C2F80950E942F
:1016D000CE036AE070E080E090E00E945F01219616
:1016E000C11521E0D20779F780E090ECAFE7B4E4D0
:1016F0008093FF0290930003A0930103B093020331
:101700000E94B90490E4B92E23E0E22EF12C00E00F
:1017100010E032E0C32ED12CC1E0D0E0B0927C00CA
:1017200080917A00806480937A0080917A0086FDAF
:10173000FCCF90917800809179008927982789279C
:101740009093040380930303823091050CF0D7C07B
:101750004FEF60E08FEF0E94CE0340E060E08BE14E
:1017600093E00E944C0562EC71E08BE193E00E94F3
:10177000670741E060E08BE193E00E944C0563ED78
:1017800071E08BE193E00E946707D0934701C0931B
:10179000460168EE73E080E090E00E945F010E94E5
:1017A000B9048AE0882E912C8091F7029091F8027A
:1017B000A091F902B091FA02892B8A2B8B2B51F060
:1017C00064E670E080E090E00E945F0181E0881AAA
:1017D000910851F70115110509F4A0CF0E940000EE
:1017E0009DCFDD2309F407CF10921F038DE090E019
:1017F0000E94D310EC011B821A828AE591E0998342
:1018000088831D821E821F82188619861A86D093AD
:101810001E03C0931D038DE093E09C878B870E947D
:10182000D7016D81862F88608D8312E019871A8613
:101830008BE39DE00197F1F76862CE010E944204BC
:101840008BE496E40197F1F76D816062CE010E940E
:10185000420483E592E00197F1F76D816062CE0169
:101860000E9442046D816062CE010E94420484E0C5
:101870008E836CE0CE010E94420461E0CE010E94A2
:1018800042048BE39FE10197F1F71F8366E0CE01ED
:101890000E9442048B859C8521E02093F60210E390
:1018A0001093F50210920A03109209030E94950208
:1018B000811116C01C8347E060E0CE010E947C03CA
:1018C0008BE193E00197F1F745E164E0CE010E94DE
:1018D0007C032FEF4FEF6FEFCE010E94A50385CE63
:1018E00082E68C8340E060E0CE010E947C034FEFF3
:1018F00068E0CE010E947C0340E261E0E7CF8E3FCA
:101900009340D4F040E060E08FEF0E94CE0340E0CF
:1019100060E08BE193E00E944C0564EE71E08BE1A6
:1019200093E00E94670741E060E08BE193E00E9452
:101930004C0565EF71E025CF809144019091450100
:10194000019651F54FEF6FEF8FEF0E94CE0340E00D
:1019500060E08BE193E00E944C0566E072E08BE171
:1019600093E00E94670741E060E08BE193E00E9412
:101970004C0567E172E08BE193E00E94670780917C
:10198000440190914501019639F46AEF70E080E0DE
:1019900090E00E945F01F3CF609103037091040314
:1019A000072E000C880B990B0E94830F9B01AC0142
:1019B0006091FF02709100038091010390910203F6
:1019C0000E94D90E20E030E040E85FE30E946C0EF8
:1019D00020E030E04AE754E40E9414106093FB02D8
:1019E0007093FC028093FD029093FE02809144016B
:1019F00090914501019709F0C0C0109245011092E5
:101A000044014FEF60E080E00E94CE0390E080E070
:101A10000E94E20687E090E00E94E20640E065E076
:101A20008091190390911A030E944C0562E0809105
:101A3000190390911A030E943B0563E080911903FA
:101A400090911A030E943B0564E0809119039091E4
:101A50001A030E943B0541E065E0809119039091D3
:101A60001A030E944C0562E08091190390911A03B9
:101A70000E943B0566E08091190390911A030E9431
:101A80003B0566E08091190390911A030E943B0583
:101A900040E06CE08091190390911A030E944C057C
:101AA00062E08091190390911A030E943B0568E05F
:101AB0008091190390911A030E943B0561E0809187
:101AC000190390911A030E943B0560E2809119036B
:101AD00090911A030E943B0541E06CE0809119034C
:101AE00090911A030E944C0562E080911903909135
:101AF0001A030E943B0566E08091190390911A0336
:101B00000E943B0561E08091190390911A030E94A5
:101B10003B0560E28091190390911A030E943B05F6
:101B20004090FB025090FC026090FD027090FE021B
:101B300020E030E0A901C301B2010E940F1020E0B3
:101B400030E040E05FE387FD5FC0C301B2010E9467
:101B50006D0E0E944B0F6093F7027093F802809312
:101B6000F9029093FA02D0924701C092460168EEC2
:101B700073E080E090E00E945F01809146019091C7
:101B800047018130910509F049C04090FB02509017
:101B9000FC026090FD027090FE0220E030E0A9019E
:101BA000C301B2010E940F1020E030E040E05FE38B
:101BB00087FD2FC0C301B2010E946D0E0E944B0F22
:101BC000CB010E94720740E06CE08BE193E00E9441
:101BD0004C0568E272E08BE193E00E94670741E008
:101BE0006CE08BE193E00E944C050E944A078091D3
:101BF000460190914701B7010E94A510019690936C
:101C0000470180934601CDCDC301B2010E946C0E05
:101C1000A0CFC301B2010E946C0ED0CF82309105DB
:101C2000F9F48091F7029091F8020E94720740E067
:101C30006CE08BE193E00E944C056DE272E08BE179
:101C400093E00E94670741E06CE08BE193E00E9423
:101C50004C0562E372E08BE193E00E946707C7CF17
:101C6000039729F62091FB023091FC024091FD027E
:101C70005091FE0260E074EA8EE497E40E94D90E6F
:101C80002B013C0120E030E0A9010E940F1020E070
:101C900030E040E05FE387FD1AC0C301B2010E945B
:101CA0006D0E0E944B0FCB010E94720740E06CE06A
:101CB0008BE193E00E944C050E944A0741E06CE0F2
:101CC0008BE193E00E944C0567E372E0C4CFC3014F
:101CD000B2010E946C0EE5CF5058BB27AA270E9484
:101CE000840E0C94D50F0E94C70F38F00E94CE0FBF
:101CF00020F039F49F3F19F426F40C94C40F0EF42D
:101D0000E095E7FB0C94BE0FE92F0E94E60F58F315
:101D1000BA17620773078407950720F079F4A6F5D0
:101D20000C9408100EF4E0950B2EBA2FA02D0B0189
:101D3000B90190010C01CA01A0011124FF27591B10
:101D400099F0593F50F4503E68F11A16F040A22F16
:101D5000232F342F4427585FF3CF46953795279587
:101D6000A795F0405395C9F77EF41F16BA0B620B86
:101D7000730B840BBAF09150A1F0FF0FBB1F661FCD
:101D8000771F881FC2F70EC0BA0F621F731F841F10
:101D900048F4879577956795B795F7959E3F08F036
:101DA000B0CF9395880F08F09927EE0F97958795F8
:101DB00008950E94ED0E0C94D50F0E94CE0F58F09E
:101DC0000E94C70F40F029F45F3F29F00C94BE0F2A
:101DD00051110C9409100C94C40F0E94E60F68F383
:101DE0009923B1F3552391F3951B550BBB27AA27D4
:101DF00062177307840738F09F5F5F4F220F331F0E
:101E0000441FAA1FA9F335D00E2E3AF0E0E832D0D5
:101E100091505040E695001CCAF72BD0FE2F29D0D8
:101E2000660F771F881FBB1F261737074807AB07AA
:101E3000B0E809F0BB0B802DBF01FF2793585F4F1F
:101E40003AF09E3F510578F00C94BE0F0C940910A7
:101E50005F3FE4F3983ED4F3869577956795B79501
:101E6000F7959F5FC9F7880F911D9695879597F90C
:101E70000895E1E0660F771F881FBB1F6217730785
:101E80008407BA0720F0621B730B840BBA0BEE1F9A
:101E900088F7E09508950E94520F6894B1110C9450
:101EA000091008950E94EE0F88F09F5798F0B92FFF
:101EB0009927B751B0F0E1F0660F771F881F991F7F
:101EC0001AF0BA95C9F714C0B13091F00E94081009
:101ED000B1E008950C940810672F782F8827B85F19
:101EE00039F0B93FCCF3869577956795B395D9F7D7
:101EF0003EF490958095709561957F4F8F4F9F4FE1
:101F00000895E89409C097FB3EF4909580957095EC
:101F100061957F4F8F4F9F4F9923A9F0F92F96E935
:101F2000BB279395F695879577956795B795F111AA
:101F3000F8CFFAF4BB0F11F460FF1BC06F5F7F4F47
:101F40008F4F9F4F16C0882311F096E911C0772359
:101F500021F09EE8872F762F05C0662371F096E862
:101F6000862F70E060E02AF09A95660F771F881F31
:101F7000DAF7880F9695879597F9089597F99F67EF
:101F800080E870E060E008959FEF80EC0895002401
:101F90000A941616170618060906089500240A94CE
:101FA00012161306140605060895092E0394000C54
:101FB00011F4882352F0BB0F40F4BF2B11F460FFE3
:101FC00004C06F5F7F4F8F4F9F4F089557FD90580C
:101FD000440F551F59F05F3F71F04795880F97FBED
:101FE000991F61F09F3F79F08795089512161306A7
:101FF0001406551FF2CF4695F1DF08C016161706D6
:102000001806991FF1CF869571056105089408950A
:10201000E894BB2766277727CB0197F908950E949C
:10202000811008F48FEF08950E9427100C94D50FAB
:102030000E94C70F38F00E94CE0F20F0952311F0B8
:102040000C94BE0F0C94C40F11240C9409100E9420
:10205000E60F70F3959FC1F3950F50E0551F629FF7
:10206000F001729FBB27F00DB11D639FAA27F00DF1
:10207000B11DAA1F649F6627B00DA11D661F829F18
:102080002227B00DA11D621F739FB00DA11D621FFD
:10209000839FA00D611D221F749F3327A00D611D1A
:1020A000231F849F600D211D822F762F6A2F1124FC
:1020B0009F5750409AF0F1F088234AF0EE0FFF1F2F
:1020C000BB1F661F771F881F91505040A9F79E3F86
:1020D000510580F00C94BE0F0C9409105F3FE4F39F
:1020E000983ED4F3869577956795B795F795E795DC
:1020F0009F5FC1F7FE2B880F911D9695879597F9E5
:102100000895990F0008550FAA0BE0E8FEEF161688
:102110001706E807F907C0F012161306E407F507DB
:1021200098F0621B730B840B950B39F40A2661F04F
:10213000232B242B252B21F408950A2609F4A140F2
:10214000A6958FEF811D811D089597FB072E16F42C
:10215000009407D077FD09D00E94BF1007FC05D07E
:102160003EF4909581959F4F0895709561957F4FAE
:102170000895EE0FFF1F0590F491E02D0994AA1B1E
:10218000BB1B51E107C0AA1FBB1FA617B70710F062
:10219000A61BB70B881F991F5A95A9F78095909594
:1021A000BC01CD0108950F931F93CF93DF9382302D
:1021B000910510F482E090E0E0912203F091230376
:1021C00030E020E0B0E0A0E0309799F4211531052F
:1021D00009F44AC0281B390B24303105D8F58A810F
:1021E0009B816115710589F1FB0193838283FE0157
:1021F00011C0408151810281138148175907E0F0D5
:102200004817590799F4109761F012960C9312979A
:1022100013961C933296CF01DF91CF911F910F91AE
:1022200008950093220310932303F4CF2115310561
:1022300051F04217530738F0A901DB019A01BD01A3
:10224000DF01F801C1CFEF01F9CF90932303809311
:102250002203CDCFFE01E20FF31F81939193225011
:10226000310939832883D7CF20912003309121036E
:10227000232B41F420914A0130914B0130932103EB
:102280002093200320914801309149012115310507
:1022900041F42DB73EB740914C0150914D01241BA4
:1022A000350BE0912003F0912103E217F307A0F42E
:1022B0002E1B3F0B2817390778F0AC014E5F5F4F9C
:1022C0002417350748F04E0F5F1F509321034093AA
:1022D0002003819391939FCFF0E0E0E09CCFCF93D8
:1022E000DF930097E9F0FC01329713821282A091EC
:1022F0002203B0912303ED0130E020E01097A1F418
:1023000020813181820F931F20912003309121037E
:102310002817390709F061C0F0932103E0932003E7
:10232000DF91CF910895EA01CE17DF07E8F54A81E2
:102330005B819E0141155105B1F7E901FB83EA83F9
:1023400049915991C40FD51FEC17FD0761F48081A5
:1023500091810296840F951FE90199838883828178
:1023600093819B838A83F0E0E0E012968D919C91AB
:1023700013970097B9F52D913C911197CD010296D5
:10238000820F931F209120033091210328173907D2
:1023900039F6309751F51092230310922203B0932F
:1023A0002103A0932003BCCFD383C28340815181FA
:1023B000840F951FC817D90761F44E5F5F4F88815E
:1023C0009981480F591F518340838A819B81938350
:1023D00082832115310509F0B0CFF0932303E093F8
:1023E00022039ECFFD01DC01C0CF13821282D7CF22
:0423F000F894FFCF8F
:1023F400910191011F1F0000000000000000000077
:10240400000007070000000000001F1F070700006E
:10241400000003071C1C00000000181C1F1F000004
:1024240000001F1F070F0F0F0F0F0F071C1E1E1E8C
:102434001E1E1E1CFFFF020000002403800000007B
:10244400400014005400000000002D049000D70444
:10245400D60400000000CF049000D704D604000086
:10246400000066023902D7040F0232021F02100272
:102474004F5554204F462052414E47450056414C3B
:10248400203E203939393920200056414C203C2047
:1024940030202020202000544553544555522050CC
:1024A4004C414E4348455200434841554646414EEF
:1024B4005400522074726F7020666F727465206FBE
:1024C40075200063697263756974206F757665722F
:1024D40074202100522074726F7020666169626CEE
:1024E40065206F7500636F7572742D63697263750F
:1024F400697420212000312E4252414E43484552F6
:10250400204341424C4500322E50524553534552CC
:10251400205B4D454D5D20005228F429002028F40D
:0C25240029004D454D4F0050285729005C
:00000001FF
