:100000000C9462000C948A000C948A000C948A0070
:100010000C948A000C948A000C948A000C948A0038
:100020000C948A000C948A000C948A000C948A0028
:100030000C948A000C948A000C948A000C948A0018
:100040000C948E070C948A000C94FE070C94D8072D
:100050000C948A000C948A000C948A000C948A00F8
:100060000C9430080C948A00000000002400270043
:100070002A0000000000250028002B0000000000DE
:1000800023002600290004040404040404040202DA
:100090000202020203030303030301020408102007
:1000A0004080010204081020010204081020000012
:1000B0000008000201000003040700000000000027
:1000C00000004F0911241FBECFEFD8E0DEBFCDBF27
:1000D00011E0A0E0B1E0EAEAFDE102C005900D9276
:1000E000A238B107D9F723E0A2E8B1E001C01D9220
:1000F000A431B207E1F710E0C2E6D0E004C02197D6
:10010000FE010E94CD0EC136D107C9F70E94B40985
:100110000C94D30E0C9400003F924F925F926F921A
:100120007F928F929F92AF92BF92CF92DF92EF9287
:10013000FF920F931F93CF93DF937C01062F6C01E7
:1001400084E0C80ED11C11E01017A0F5F6018190D3
:100150009190A190B1906F01312EC32DD0E0C1508C
:10016000D04CCC0FDD1FCC0FDD1FF701EC0FFD1FB6
:1001700040805180628073802496CE0DDF1DA301E4
:100180009201C501B4010E94D50C87FF07C04882C7
:1001900059826A827B823A943110DFCF84E0389EA4
:1001A000F0011124EE0DFF1D80829182A282B382A4
:1001B0001F5FCACFDF91CF911F910F91FF90EF90FA
:1001C000DF90CF90BF90AF909F908F907F906F9077
:1001D0005F904F903F900895833081F028F48130F4
:1001E00099F08230A9F008958730A9F08830C9F0DD
:1001F0008430B1F4809180008F7D03C080918000B5
:100200008F7780938000089584B58F7784BD08959B
:1002100084B58F7DFBCF8091B0008F778093B00045
:1002200008958091B0008F7DF9CFCF93DF93282F71
:1002300030E0F901E255FF4F8491F901E656FF4F96
:10024000D491F901EA57FF4FC491CC23A1F0811159
:100250000E94EC00EC2FF0E0EE0FFF1FE458FF4F80
:10026000A591B491EC91ED2381E090E009F480E058
:10027000DF91CF91089580E090E0FACF1F93CF9364
:10028000DF93282F30E0F901E255FF4F8491F90107
:10029000E656FF4FD491F901EA57FF4FC491CC23A2
:1002A000A9F0162F81110E94EC00EC2FF0E0EE0F68
:1002B000FF1FEE58FF4FA591B4918FB7F894EC91C2
:1002C000111108C0D095DE23DC938FBFDF91CF9151
:1002D0001F910895DE2BF8CFCF93DF9390E0FC01C0
:1002E000E656FF4F24918A579F4FFC018491882343
:1002F000C9F090E0880F991FFC01E859FF4FA591C4
:10030000B491FC01EE58FF4FC591D49161110DC01D
:100310009FB7F8948C91209582238C938881282311
:1003200028839FBFDF91CF910895623051F49FB72A
:10033000F8943C91822F809583238C93E8812E2B17
:10034000EFCF8FB7F894EC912E2B2C938FBFEACF81
:100350003FB7F8948091EF019091F001A091F101E5
:10036000B091F20126B5A89B05C02F3F19F0019668
:10037000A11DB11D3FBFBA2FA92F982F8827BC01FF
:10038000CD01620F711D811D911D42E0660F771F27
:10039000881F991F4A95D1F708958F929F92AF9227
:1003A000BF92CF92DF92EF92FF924B015C010E94CD
:1003B000A8016B017C010E94A8016C197D098E09BE
:1003C0009F09683E734081059105A8F321E0821AD8
:1003D0009108A108B10888EEC80E83E0D81EE11C80
:1003E000F11C81149104A104B10429F7FF90EF904E
:1003F000DF90CF90BF90AF909F908F900895089519
:100400000895AF92BF92CF92DF92EF92FF920F9337
:100410001F93CF93DF936C017B018B01040F151F9A
:10042000EB015E01AE18BF08C017D10759F0699102
:10043000D601ED91FC910190F081E02DC601099566
:10044000892B79F7C501DF91CF911F910F91FF9013
:10045000EF90DF90CF90BF90AF900895FC01538D47
:10046000448D252F30E0842F90E0821B930B54178E
:1004700010F0CF96089501970895FC01918D828D1B
:10048000981761F0A28DAE0FBF2FB11D5D968C91B4
:10049000928D9F5F9F73928F90E008958FEF9FEFF3
:1004A0000895FC01918D828D981731F0828DE80FAF
:1004B000F11D858D90E008958FEF9FEF0895FC0169
:1004C000918D228D892F90E0805C9F4F821B910936
:1004D0008F739927089587E492E00E945F0221E0DC
:1004E000892B09F420E0822F089580E090E0892B89
:1004F00029F00E946B0281110C9400000895FC0108
:10050000A48DA80FB92FB11DA35ABF4F2C91848D74
:1005100090E001968F739927848FA689B7892C93D1
:10052000A089B1898C91837080648C93938D848D24
:10053000981306C00288F389E02D80818F7D808327
:100540000895EF92FF920F931F93CF93DF93EC01E7
:1005500081E0888F9B8D8C8D98131AC0E889F9896A
:10056000808185FF15C09FB7F894EE89FF8960836D
:10057000E889F98980818370806480839FBF81E0EE
:1005800090E0DF91CF911F910F91FF90EF90089530
:10059000F62E0B8D10E00F5F1F4F0F731127E02E0B
:1005A0008C8D8E110CC00FB607FCFACFE889F98943
:1005B000808185FFF5CFCE010E947F02F1CFEB8DC8
:1005C000EC0FFD2FF11DE35AFF4FF0829FB7F89417
:1005D0000B8FEA89FB8980818062CFCFCF93DF9335
:1005E000EC01888D8823B9F0AA89BB89E889F9894B
:1005F0008C9185FD03C0808186FD0DC00FB607FC80
:10060000F7CF8C9185FFF2CF808185FFEDCFCE01B2
:100610000E947F02E9CFDF91CF9108950895209144
:10062000C301260F3327331F21323105ECF420910B
:100630001902FC0190E080E0243069F082E0089526
:10064000A091C3012191AC014D555E4FA40FB52F70
:10065000B11D2C930196861798F38091C301680F02
:100660006093C30180E0089581E00895109219021B
:1006700081E0809318021092F30161E082E10E9410
:100680003E0161E083E10E943E01E9EBF0E0808100
:100690008E7F808380818D7F808388E48093B80003
:1006A00085E48093BC000895CF93DF9391E090930D
:1006B000A2018823B9F0C091B800D091BA0080910E
:1006C000BC008A7B8093BC0060E082E10E943E0116
:1006D00060E083E10E943E010E943603D093BA009D
:1006E000C093B800DF91CF910895CF92DF92EF923F
:1006F000FF920F931F93CF93DF93D091420281E03B
:10070000D13208F09CC0C09141020E94A8016B0147
:100710007C018091190281116CC082E080931902E2
:1007200081E0809318028FEF8093170210921602D7
:10073000D0931502A1E2B2E0E5EFF1E080E0D8133A
:100740008DC01092F4018091F401CC0FC82BC0939E
:10075000F4018091F301813009F084C01092F3011B
:100760000E94A8016B017C018091F4018093BB0081
:1007700080911B0290911C02A0911D02B0911E025B
:10078000892B8A2B8B2BA1F00E94A80100911B02C0
:1007900010911C0220911D0230911E026C197D09DE
:1007A0008E099F09061717072807390708F442C062
:1007B0008091BC0083FDD8CF85EC8093BC000E9463
:1007C000A8016B017C0180911902823009F44CC0B0
:1007D000809117028F3F09F469C08091170280321F
:1007E00009F466C080911702803309F463C084E085
:1007F00026C080911B0290911C02A0911D02B09115
:100800001E02892B8A2B8B2B09F483CF0E94A8010F
:1008100000911B0210911C0220911D0230911E02BA
:100820006C197D098E099F090617170728073907D4
:1008300008F06FCF80911A020E94540385E0109255
:1008400020021092420210921F02DF91CF911F915D
:100850000F91FF90EF90DF90CF9008959D9191932D
:100860008F5F6DCF85EEA9CF80911B0290911C0206
:10087000A0911D02B0911E02892B8A2B8B2B09F4AB
:10088000A2CF0E94A80100911B0210911C0220918E
:100890001D0230911E026C197D098E099F090617F1
:1008A00017072807390708F08ECFC4CF80E0C7CFDD
:1008B00082E0C5CF83E0C3CF1F93CF93DF93162F82
:1008C000C0EFD2E0AB85BC859C8121E020931F0264
:1008D000909341021092200210924202ED91FC91FD
:1008E00011970190F081E02D682FCD0109958B853E
:1008F0009C85DC01ED91FC910190F081E02D612F50
:100900000995DF91CF911F910C947503CF93DF93DD
:10091000D62FC42F9091F402682F903369F486E0AB
:100920000E945C046D2F87E00E945C046C2F88E0BD
:10093000DF91CF910C945C0484E00E945C046D2FE5
:1009400083E00E945C046C2F82E0F2CF0F931F9330
:10095000CF93DF938C01EB01DC011B968D919C9171
:1009600021E020931F022EE32093410210922002E7
:1009700010924202DC01ED91FC910190F081E02D9A
:1009800068810995F80183859485DC01ED91FC91DE
:100990000190F081E02D69810995DF91CF911F9140
:1009A0000F910C947503CF93DF9300D0CDB7DEB7D2
:1009B00090E899838A83BE016F5F7F4F80EF92E05A
:1009C0000E94A6040F900F90DF91CF91089581E0CF
:1009D0000E94D3048BE39FE10197F1F70895CF9331
:1009E000DF9300D0CDB7DEB720E429836A83BE0150
:1009F0006F5F7F4F0E94A60481E090E00F900F9000
:100A0000DF91CF9108950895E091EB018091EA0183
:100A1000E81730F4F0E0EE57FE4F808190E0089543
:100A20008FEF9FEF08959091EB018091EA012FEFF6
:100A30003FEF981748F4E92FF0E0EE57FE4F208182
:100A400030E09F5F9093EB01C90108958091EA0126
:100A50009091EB01891B990B0895CF92DF92EF9251
:100A6000FF920F931F93CF93DF937C01CB018A01F9
:100A700020911F02222389F0EB016B01C40ED51EC9
:100A8000CC15DD0569F06991D701ED91FC910190DC
:100A9000F081E02DC7010995F3CF642F0E940F0369
:100AA000C801DF91CF911F910F91FF90EF90DF90E0
:100AB000CF900895CF93DF931F92CDB7DEB76983B0
:100AC00020911F022223F9F020914202203258F097
:100AD00021E030E0FC013383228390E080E00F903E
:100AE000DF91CF91089580912002E82FF0E0EF5D33
:100AF000FD4F998190838F5F809320028093420203
:100B000081E090E0ECCF61E0CE0101960E940F03FE
:100B1000F7CF90E080E00895EF92FF920F931F933C
:100B2000CF93DF93F090FE02E090FD0208E010E02A
:100B3000C0E0D0E861E08F2D0E943E018E2D0E9422
:100B40001501019709F4CD2B60E08F2D0E943E0125
:100B5000D6950150110971F78C2FDF91CF911F911C
:100B60000F91FF90EF900895FF920F931F93CF93F3
:100B7000DF938091FD020E9415010197D1F310E0EF
:100B8000F8940E948C05D82F0E948C05F82E0E94A4
:100B90008C05082F8091FF02803829F0803471F095
:100BA000C2E0803261F061E08091FE020E943E016D
:100BB00060E08091FE020E943E010DC0C3E061E052
:100BC0008091FE020E943E0160E08091FE020E9440
:100BD0003E01C150A1F77894D7FD1FEF2FB7F894CD
:100BE0008091430290914402A0914502B091460247
:100BF0002FBF8093080390930903A0930A03B09337
:100C00000B03602F7F2D8D2F912F0E94840DDF917C
:100C1000CF911F910F91FF900895FB01019000204B
:100C2000E9F73197AF01461B570BDC01ED91FC91C1
:100C30000280F381E02D09948F929F92AF92BF9230
:100C4000EF92FF920F931F93CF93DF93CDB7DEB751
:100C5000A1970FB6F894DEBF0FBECDBF7C01FA019D
:100C6000CB0119A2223008F42AE08E010F5D1F4F3C
:100C7000822E912CB12CA12CBF01A50194010E94C0
:100C8000AB0EF901CA016A300CF5605DD8016E93B4
:100C90008D01232B242B252B79F790E080E01097F2
:100CA00021F0BD01C7010E940D06A1960FB6F89470
:100CB000DEBF0FBECDBFDF91CF911F910F91FF908F
:100CC000EF90BF90AF909F908F900895695CDECFBA
:100CD0002F923F924F925F926F927F928F929F924C
:100CE000AF92BF92CF92DF92EF92FF921F93CF937A
:100CF000DF93EC016A017B01722EAB019601CB01FF
:100D0000B6010E94A60E60E371E0811126C0460183
:100D10005701E894B7F82FEF3FEF4FE75FE7C501C2
:100D2000B4010E94A60E81110CC02FEF3FEF4FE7D8
:100D30005FE7C501B4010E94D50C64E371E01816A9
:100D400064F02FEF3FEF4FE75FE4C701B6010E9469
:100D5000340E1816B4F468E371E0CE01DF91CF9140
:100D60001F91FF90EF90DF90CF90BF90AF909F903A
:100D70008F907F906F905F904F903F902F900C944A
:100D80000D062FEF3FEF4FE75FECC701B6010E9462
:100D9000D50C87FDE0CF20E030E0A901C701B60106
:100DA0000E94D50C312C212C87FF0DC0E881F981E0
:100DB0000190F081E02D6DE2CE0109951C01F7FA5A
:100DC000F094F7F8F09410E060E070E080E09FE3CA
:100DD000711641F020E030E040E251E40E94DA0C6C
:100DE0001F5FF6CFA70196010E94690C2B013C0101
:100DF0000E94530D4B015C012AE0BC01A401CE010D
:100E00000E941C067C01E20CF31C1123E1F1C501D8
:100E1000B4010E94820D9B01AC01C301B2010E948A
:100E2000680C4B015C01E881F9810190F081E02DB3
:100E30006EE2CE010995E80EF91E115020F120E076
:100E400030E040E251E4C501B4010E94390E2B01AB
:100E50003C010E94530D4B01B12CA12C2AE0B5019D
:100E6000A401CE010E941C06E80EF91EC501B401C2
:100E70000E94820D9B01AC01C301B2010E94680C6B
:100E80004B015C01DACFC701DF91CF911F91FF9039
:100E9000EF90DF90CF90BF90AF909F908F907F901A
:100EA0006F905F904F903F902F90089585ED8093C5
:100EB000BC0080911B0290911C02A0911D02B09178
:100EC0001E020796A11DB11D23E0B695A795979523
:100ED00087952A95D1F72091BC0024FD03C010927C
:100EE0001902089540911B0250911C0260911D024D
:100EF00070911E02452B462B472B69F30097A105E5
:100F0000B10541F02AE22A95F1F700C00197A10945
:100F1000B109E1CF80911A020C9454031F920F92F1
:100F20000FB60F9211242F933F938F939F93AF93FC
:100F3000BF938091430290914402A0914502B091E9
:100F400046023091EE0123E0230F2D3758F501962C
:100F5000A11DB11D2093EE018093430290934402A2
:100F6000A0934502B09346028091EF019091F00169
:100F7000A091F101B091F2010196A11DB11D8093E4
:100F8000EF019093F001A093F101B093F201BF91B2
:100F9000AF919F918F913F912F910F900FBE0F9026
:100FA0001F90189526E8230F0296A11DB11DD2CFE0
:100FB0001F920F920FB60F9211242F933F934F93CE
:100FC0005F936F937F938F939F93AF93BF93EF93B1
:100FD000FF9387E492E00E947F02FF91EF91BF911F
:100FE000AF919F918F917F916F915F914F913F91C1
:100FF0002F910F900FBE0F901F9018951F920F9278
:101000000FB60F9211242F938F939F93EF93FF931B
:10101000E0915702F09158028081E0915D02F091D9
:101020005E0282FD1BC09081809160028F5F8F7392
:1010300020916102821741F0E0916002F0E0E95BEB
:10104000FD4F958F80936002FF91EF919F918F915B
:101050002F910F900FBE0F901F9018958081F4CFA5
:101060001F920F920FB60F9211242F933F934F931D
:101070005F936F937F938F939F93AF93BF93EF9300
:10108000FF938091B900887F803609F44AC0F0F55B
:10109000883209F4A7C018F5803109F49BC0B8F470
:1010A000882309F4F9C0883009F494C0FF91EF91C6
:1010B000BF91AF919F918F917F916F915F914F9170
:1010C0003F912F910F900FBE0F901F901895883170
:1010D00009F488C0803251F78093170214C080341D
:1010E00009F49DC040F48033B9F38833F9F6809356
:1010F000170285ECB0C0803509F485C0883509F445
:1011000096C0883499F60E945607D0CF883909F4E2
:101110008CC038F5883729F050F4883611F08037C4
:1011200029F683E0809319021092E50157C08838B0
:1011300009F47BC0803919F0803809F0B7CF80916D
:10114000E501803208F071C0E091E50181E08E0F89
:101150008093E5018091BB00F0E0EB53FE4F80836C
:101160003DC0803B39F0E0F4803A09F479C0883A18
:1011700009F09CCF84E0809319021092C401109270
:10118000C301E091E801F091E90109958091C30163
:1011900081110FC081E08093C3011092A30109C0A7
:1011A000803C09F4A6CF883C09F4A3CF883B09F022
:1011B0007DCFE091C40181E08E0F8093C401F0E007
:1011C000ED55FE4F80818093BB009091C4018091CA
:1011D000C30129C08091F4018093BB0085EC80930A
:1011E000BC0064CF9091160280911502981758F5B3
:1011F000E091160281E08E0F80931602F0E0EB5032
:10120000FE4F8081E9CFE091160281E08E0F80933E
:1012100016028091BB00F0E0EB50FE4F808390916E
:101220001602809115029817C8F285E8D8CFE09190
:10123000160281E08E0F809316028091BB00F0E0D1
:10124000EB50FE4F80838091180281115CCF81E0CA
:101250008093F30184EA8093BC001092190226CF98
:1012600085EC8093BC00109219028091E5018032D8
:1012700030F4E091E501F0E0EB53FE4F1082609115
:10128000E50170E0E091E601F091E70185EC91E085
:1012900009951092E5010ACF1092170234CFE7E4C6
:1012A000F2E01382128288EE93E0A0E0B0E0848343
:1012B0009583A683B78324E031E03183208325EC36
:1012C00030E03587248724EC30E03787268720EC10
:1012D00030E0318B208B21EC30E0338B228B22EC01
:1012E00030E0358B248B26EC30E0378B268B118E4B
:1012F000128E138E148EE4EEF2E013821282848337
:101300009583A683B78386E191E091838083EDEF97
:10131000F2E08FEF858B8AE0868B80E882831382F0
:1013200014821582168280E090E0A0E8BFE38783F4
:101330009087A187B287138614861586168617862E
:10134000108A118A128A138A148AE0EFF2E013825B
:10135000128288E291E0918380831582168217823F
:101360001086118612860895CF93DF93CDB7DEB72E
:10137000EC970FB6F894DEBF0FBECDBF789484B55E
:10138000826084BD84B5816084BD85B5826085BD81
:1013900085B5816085BD80916E00816080936E000F
:1013A0001092810080918100826080938100809101
:1013B00081008160809381008091800081608093B2
:1013C00080008091B10084608093B1008091B00072
:1013D00081608093B00080917A00846080937A006D
:1013E00080917A00826080937A0080917A00816097
:1013F00080937A0080917A00806880937A001092BE
:10140000C1001092EB011092EA011092200210929A
:1014100042020E9436034FEFC42E41E0D42ED092F8
:10142000E901C092E80150E0E52E52E0F52EF0927D
:10143000E701E092E601E0915702F091580212E0D4
:101440001083E0915302F09154021082E091550212
:10145000F09156028FEC808310925F02E0915B0264
:10146000F0915C0286E08083E0915902F0915A028B
:10147000808180618083E0915902F0915A028081DD
:1014800088608083E0915902F0915A0280818068DF
:101490008083E0915902F0915A0280818F7D808390
:1014A0006CE371E087E492E00E940D0666E471E06F
:1014B00087E492E00E940D0666E471E087E492E022
:1014C0000E940D068EE08093FD028FE08093FE0265
:1014D0001092110362E08EE00E946C0161E0809145
:1014E000FE020E946C0160E08091FE020E943E01BB
:1014F00061E08091FE020E943E018BEF90E0019737
:10150000F1F760E08091FE020E943E0180E8809346
:10151000FF02109200031092010310920203109236
:10152000030380E090E0A0E8BFE38093040390937E
:101530000503A0930603B0930703109208031092CB
:10154000090310920A0310920B0310920C031092DD
:101550000D0310920E0310920F031092100361E01E
:1015600088E00E946C0160E087E00E946C0181E5E8
:101570009EE8ADEBB7E38093040390930503A0933B
:101580000603B093070384EE92E09093FC028093ED
:10159000FB021092EB011092EA01109220021092CD
:1015A00042020E943603D092E901C092E801F09213
:1015B000E701E092E6018091F502982F9860909300
:1015C000F5021093F9021092FA02EBE3FDE0319775
:1015D000F1F788620E94D3048BE496E40197F1F757
:1015E0008091F50280620E94D30483E592E0019726
:1015F000F1F78091F50280620E94D3048091F50298
:1016000080620E94D30484E08093F6028CE00E9402
:10161000D3040E94E7041093F70286E00E94D304EB
:1016200081E080931F0210E3109341021092200288
:10163000109242020E94750381118CC01093F40233
:1016400067E00E945C048BE193E00197F1F765E1AC
:1016500084E00E945C044FEF6FEF8FEF0E948604DE
:1016600040E06FEF8AEF0E9486047E018DE0E80E75
:10167000F11C90E8992E28E8822EAA24A394B12C7C
:1016800080E0C82E80E0D82E87E00E9415010197E7
:1016900009F048C012E3412C512C32010E94B405DC
:1016A0009B01AC01C301B2010E94690C2B013C01FA
:1016B0001150A1F720E030E048E452E40E94DA0C37
:1016C0000E944C0D6093000370930103809302030A
:1016D0009093030369E471E087E492E00E940D06B1
:1016E00066E471E087E492E00E940D060E94E70440
:1016F0004AEF62E387E30E94860499829A82BE01E0
:101700006F5F7F4F80EF92E00E94A60464E671E075
:1017100080EF92E00E940D0668E873E180E090E0BF
:101720000E94CD018091FD020E941501892B09F0D4
:10173000BBC080911003823011F1D0F48E010F5F95
:101740001F4F38018130C1F10E94B40520E030E024
:10175000A9012FC082E68093F40260E080E00E943D
:101760005C046FEF88E00E945C0460E281E071CF6E
:10177000853050F70E94B4052B013C0130C08E012A
:101780000F5F1F4F38010E94B405F80161937193F8
:10179000819391938F01EE15FF05A9F763E0C301D3
:1017A0000E948C0020E030E0A9016D817E818F8154
:1017B00098850E94690CE0CF0E94B405F8016193FE
:1017C0007193819391938F01EE16FF06A9F763E061
:1017D000C3010E948C004D805E806F807884609190
:1017E00000037091010380910203909103030E9412
:1017F000840D9B01AC01C301B2010E94680C2091D1
:1018000004033091050340910603509107030E94A1
:10181000390E2B013C0122E0BC01A20187E492E0D9
:101820000E94680666E471E087E492E00E940D067B
:1018300020E030E048EC51E4C301B2010E94340ED4
:101840001816F4F5B092ED01A092EC0142E362E3C8
:101850008FEF0E9486046091EC0188E00E943E01B7
:101860000E94E70466E771E080EF92E00E940D06B7
:1018700099828A82BE016F5F7F4F80EF92E00E9463
:10188000A60421E0B301A20180EF92E00E94680665
:101890006DE771E080EF92E00E940D0664EF71E069
:1018A00080E090E00E94CD01C114D10409F4ECCE97
:1018B0000E946B02882309F4E7CE0E940000E0CE6C
:1018C0001092ED011092EC0142E36AEF82E3C1CF86
:1018D0005058BB27AA270E94800C0C94FA0D0E9436
:1018E000EC0D38F00E94F30D20F039F49F3F19F40D
:1018F00026F40C94E90D0EF4E095E7FB0C94E30D4F
:10190000E92F0E940B0E58F3BA176207730784077A
:10191000950720F079F4A6F50C942D0E0EF4E095C1
:101920000B2EBA2FA02D0B01B90190010C01CA0199
:10193000A0011124FF27591B99F0593F50F4503E44
:1019400068F11A16F040A22F232F342F4427585F36
:10195000F3CF469537952795A795F0405395C9F74E
:101960007EF41F16BA0B620B730B840BBAF0915006
:10197000A1F0FF0FBB1F661F771F881FC2F70EC0A5
:10198000BA0F621F731F841F48F487957795679578
:10199000B795F7959E3F08F0B0CF9395880F08F064
:1019A0009927EE0F9795879508950E94BF0D08F42B
:1019B00081E008950E94EE0C0C94FA0D0E94F30D44
:1019C00058F00E94EC0D40F029F45F3F29F00C9490
:1019D000E30D51110C942E0E0C94E90D0E940B0E88
:1019E00068F39923B1F3552391F3951B550BBB274E
:1019F000AA2762177307840738F09F5F5F4F220F93
:101A0000331F441FAA1FA9F335D00E2E3AF0E0E889
:101A100032D091505040E695001CCAF72BD0FE2FD3
:101A200029D0660F771F881FBB1F26173707480767
:101A3000AB07B0E809F0BB0B802DBF01FF2793581F
:101A40005F4F3AF09E3F510578F00C94E30D0C94F3
:101A50002E0E5F3FE4F3983ED4F386957795679515
:101A6000B795F7959F5FC9F7880F911D9695879554
:101A700097F90895E1E0660F771F881FBB1F621773
:101A800073078407BA0720F0621B730B840BBA0B31
:101A9000EE1F88F7E09508950E94530D6894B111E8
:101AA0000C942E0E08950E94130E88F09F5798F004
:101AB000B92F9927B751B0F0E1F0660F771F881F53
:101AC000991F1AF0BA95C9F714C0B13091F00E946D
:101AD0002D0EB1E008950C942D0E672F782F8827D6
:101AE000B85F39F0B93FCCF3869577956795B39594
:101AF000D9F73EF490958095709561957F4F8F4F03
:101B00009F4F0895E89409C097FB3EF49095809507
:101B1000709561957F4F8F4F9F4F9923A9F0F92FB3
:101B200096E9BB279395F695879577956795B79531
:101B3000F111F8CFFAF4BB0F11F460FF1BC06F5F17
:101B40007F4F8F4F9F4F16C0882311F096E911C029
:101B5000772321F09EE8872F762F05C0662371F04A
:101B600096E8862F70E060E02AF09A95660F771F5E
:101B7000881FDAF7880F9695879597F90895990F3A
:101B80000008550FAA0BE0E8FEEF16161706E80747
:101B9000F907C0F012161306E407F50798F0621B68
:101BA000730B840B950B39F40A2661F0232B242B3D
:101BB000252B21F408950A2609F4A140A6958FEF5C
:101BC000811D811D089597F99F6780E870E060E0AE
:101BD00008959FEF80EC089500240A9416161706C6
:101BE00018060906089500240A941216130614060E
:101BF00005060895092E0394000C11F4882352F071
:101C0000BB0F40F4BF2B11F460FF04C06F5F7F4F28
:101C10008F4F9F4F089557FD9058440F551F59F00F
:101C20005F3F71F04795880F97FB991F61F09F3FC9
:101C300079F087950895121613061406551FF2CFF2
:101C40004695F1DF08C0161617061806991FF1CF42
:101C500086957105610508940895E894BB27662769
:101C60007727CB0197F908950E94BF0D08F48FEFF5
:101C700008950E944C0E0C94FA0D0E94EC0D38F061
:101C80000E94F30D20F0952311F00C94E30D0C94B9
:101C9000E90D11240C942E0E0E940B0E70F3959FEB
:101CA000C1F3950F50E0551F629FF001729FBB2753
:101CB000F00DB11D639FAA27F00DB11DAA1F649FEF
:101CC0006627B00DA11D661F829F2227B00DA11DA2
:101CD000621F739FB00DA11D621F839FA00D611D28
:101CE000221F749F3327A00D611D231F849F600D49
:101CF000211D822F762F6A2F11249F5750409AF072
:101D0000F1F088234AF0EE0FFF1FBB1F661F771FFD
:101D1000881F91505040A9F79E3F510580F00C94C8
:101D2000E30D0C942E0E5F3FE4F3983ED4F38695BA
:101D300077956795B795F795E7959F5FC1F7FE2B68
:101D4000880F911D9695879597F908950E94BF0D6C
:101D5000880B990B0895A1E21A2EAA1BBB1BFD014B
:101D60000DC0AA1FBB1FEE1FFF1FA217B307E4077A
:101D7000F50720F0A21BB30BE40BF50B661F771FD2
:101D8000881F991F1A9469F76095709580959095B2
:101D90009B01AC01BD01CF010895EE0FFF1F05901F
:0A1DA000F491E02D0994F894FFCFB0
:101DAA0000000000A10201022E02EE025F023D02C3
:101DBA005102000000005A052D0589050305260574
:101DCA001305040500000000EF04010289050E0353
:101DDA006E616E00696E66006F76660052756368A2
:101DEA006520424143000D0A0054617265206D610D
:101DFA006E75656C6C652065666665637475C3A9E6
:101E0A00652021002D2D2052415A20647520506FE3
:101E1A006964732D2D00506F6964733A00206B67F3
:021E2A000000B6
:00000001FF
