:100000000C945E000C9486000C9486000C94860080
:100010000C9486000C9486000C9486000C94860048
:100020000C9486000C9486000C9486000C94860038
:100030000C9486000C9486000C9486000C94860028
:100040000C944E050C9486000C9486000C9486004B
:100050000C9486000C9486000C9486000C94860008
:100060000C9498050C948600000000080002010022
:100070000003040700000000000000000000000072
:10008000250028002B0000000000240027002A0083
:10009000040404040404040402020202020203032E
:1000A0000303030301020408102040800102040836
:1000B0001020010204081020C806B70911241FBE31
:1000C000CFEFD8E0DEBFCDBF23E0ACE1B2E001C0AE
:1000D0001D92A830B207E1F712E0A0E0B1E0E6E23D
:1000E000F8E102C005900D92AC31B107D9F710E0EC
:1000F000CDE5D0E004C02197FE010E940E0ACC3568
:10010000D107C9F70E94F1060C94060C0C9400006C
:100110000895089590E0FC01EC55FF4F249180571D
:100120009F4FFC018491882399F090E0880F991FDC
:10013000FC01EA57FF4FA591B491FC01E458FF4F31
:10014000859194918FB7F894EC91E22BEC938FBF4B
:100150000895DC0114964D915C9115976D917C91F9
:1001600080910303882359F08091FF02909100034E
:10017000DC01ED91FC910280F381E02D09948091E6
:10018000010390910203F4CF90E0FC01E859FF4F86
:100190002491FC01EC55FF4F3491FC01E057FF4FD7
:1001A000E491EE23C9F0222339F0233001F1A8F4C1
:1001B000213019F1223029F1F0E0EE0FFF1FE45851
:1001C000FF4FA591B4918FB7F894EC91611126C0BF
:1001D00030953E233C938FBF08952730A9F02830F7
:1001E000C9F0243049F7809180008F7D03C0809151
:1001F00080008F7780938000DFCF84B58F7784BDB8
:10020000DBCF84B58F7DFBCF8091B0008F7780935B
:10021000B000D2CF8091B0008F7DF9CF3E2BDACFE6
:100220003FB7F8948091D3029091D402A091D50267
:10023000B091D60226B5A89B05C02F3F19F00196B4
:10024000A11DB11D3FBFBA2FA92F982F8827BC0130
:10025000CD01620F711D811D911D42E0660F771F58
:10026000881F991F4A95D1F708958F929F92AF9258
:10027000BF92CF92DF92EF92FF924B015C010E94FE
:1002800010016B017C010E9410016C197D098E091F
:100290009F09683E734081059105A8F321E0821A09
:1002A0009108A108B10888EEC80E83E0D81EE11CB1
:1002B000F11C81149104A104B10429F7FF90EF907F
:1002C000DF90CF90BF90AF909F908F900895AF92A6
:1002D000BF92CF92DF92EF92FF920F931F93CF9333
:1002E000DF936C017B018B01040F151FEB015E0195
:1002F000AE18BF08C017D10759F06991D601ED912A
:10030000FC910190F081E02DC6010995892B79F7C8
:10031000C501DF91CF911F910F91FF90EF90DF907A
:10032000CF90BF90AF90089520918202260F33277F
:10033000331F21323105ECF42091A602FC0190E03C
:1003400080E0243069F082E00895A091820221913A
:10035000AC014E595D4FA40FB52FB11D2C930196E2
:10036000861798F380918202680F6093820280E082
:10037000089581E008951092A60281E08093A8027A
:100380001092A70261E082E10E94C40061E083E173
:100390000E94C400E9EBF0E080818E7F8083808141
:1003A0008D7F808388E48093B80085E48093BC00CF
:1003B00008951092DC021092DB021092DE0210927D
:1003C000DD020E94BB0188E890E09093DA028093FE
:1003D000D90289E890E09093D8028093D7020895DB
:1003E000CF93DF9391E0909361028823B9F0C0919D
:1003F000B800D091BA008091BC008A7B8093BC0089
:1004000060E082E10E94C40060E083E10E94C400D9
:100410000E94BB01D093BA00C093B800DF91CF9186
:1004200008950895E091DC028091DB02E81730F432
:10043000F0E0E45CFD4F808190E008958FEF9FEF46
:1004400008959091DC028091DB022FEF3FEF981727
:1004500048F4E92FF0E0E45CFD4F208130E09F5F3D
:100460009093DC02C90108958091DB029091DC0237
:10047000891B990B0895CF92DF92EF92FF920F9311
:100480001F93CF93DF937C01CB018A012091E0027F
:10049000222389F0EB016B01C40ED51ECC15DD05BE
:1004A00069F06991D701ED91FC910190F081E02D07
:1004B000C7010995F3CF642F0E949401C801DF9111
:1004C000CF911F910F91FF90EF90DF90CF90089503
:1004D000CF93DF931F92CDB7DEB769832091E002FF
:1004E0002223F9F02091DD02203258F021E030E0A3
:1004F000FC013383228390E080E00F90DF91CF9165
:1005000008958091DE02E82FF0E0E45EFD4F9981CE
:1005100090838F5F8093DE028093DD0281E090E024
:10052000ECCF61E0CE0101960E949401F7CFCF920B
:10053000DF92EF92FF920F931F93CF93DF93D091AF
:10054000DD0281E0D13208F09CC0C091DF020E9440
:1005500010016B017C018091A60281116CC082E0C8
:100560008093A60281E08093A8028FEF8093A5027A
:100570001092CA02D093C902ACE1B2E0E9EAF2E01B
:1005800080E0D8138DC01092CB028091CB02CC0FAB
:10059000C82BC093CB028091A702813009F084C0A0
:1005A0001092A7020E9410016B017C018091CB0286
:1005B0008093BB0080915D0290915E02A0915F02EA
:1005C000B0916002892B8A2B8B2BA1F00E94100125
:1005D00000915D0210915E0220915F0230916002F5
:1005E0006C197D098E099F09061717072807390717
:1005F00008F442C08091BC0083FDD8CF85EC809385
:10060000BC000E9410016B017C018091A602823027
:1006100009F44CC08091A5028F3F09F469C0809114
:10062000A502803209F466C08091A502803309F4E6
:1006300063C084E026C080915D0290915E02A0912B
:100640005F02B0916002892B8A2B8B2B09F483CF38
:100650000E94100100915D0210915E0220915F02E4
:10066000309160026C197D098E099F0906171707E2
:100670002807390708F06FCF80915C020E94F001D3
:1006800085E01092DE021092DD021092E002DF910E
:10069000CF911F910F91FF90EF90DF90CF90089531
:1006A0009D9191938F5F6DCF85EEA9CF80915D0273
:1006B00090915E02A0915F02B0916002892B8A2B1B
:1006C0008B2B09F4A2CF0E94100100915D021091C2
:1006D0005E0220915F02309160026C197D098E09E3
:1006E0009F09061717072807390708F08ECFC4CFD0
:1006F00080E0C7CF82E0C5CF83E0C3CF0F931F93C5
:10070000CF93DF93EC018B018B859C8521E02093B7
:10071000E0022EE32093DF021092DE021092DD024F
:10072000DC01ED91FC910190F081E02DDB016C91F9
:1007300009958B859C85DC01ED91FC910190F08100
:10074000E02DD80111966C9109958B859C85DF91E0
:10075000CF911F910F910C9497021F93CF93DF932A
:10076000EC01142F8B859C852C8131E03093E002C5
:100770002093DF021092DE021092DD02DC01ED9187
:10078000FC910190F081E02D09958B859C85DC0121
:10079000ED91FC910190F081E02D612F09958B8501
:1007A0009C85DF91CF911F910C949702CF93DF939B
:1007B00000D0CDB7DEB720E429836A83BE016F5F26
:1007C0007F4F0E947E0381E090E00F900F90DF91B9
:1007D000CF910895CF93DF9300D0CDB7DEB720E857
:1007E00029836A83BE016F5F7F4F0E947E030F9053
:1007F0000F90DF91CF910895CF93C62F672FFC0103
:10080000848191E09093E0028093DF021092DE02F7
:100810001092DD0281EE92E00E9468026C2F81EE60
:1008200092E00E94680281EE92E0CF910C949702D0
:10083000CF93DF93CDB7DEB728970FB6F894DEBF1E
:100840000FBECDBF28E0E6E0F1E0DE011196019099
:100850000D922A95E1F7FC012085261708F46FEF29
:1008600070E0660F771F21E030E02C0F3D1F620F14
:10087000731FFB016081606870E028960FB6F894E2
:10088000DEBF0FBECDBFDF91CF910C94FC03CF93A1
:10089000DF93EC0161E070E00E94FC038BE39FE1D9
:1008A0000197F1F78985882331F060E0CE01DF916F
:1008B000CF910C941804DF91CF91089570E070648B
:1008C0000E94FC0381E090E00895089590E080E0AC
:1008D00008950F931F93CF93DF93EC018881998143
:1008E000009759F02A813B812617370730F081E0C5
:1008F000DF91CF911F910F9108958B016F5F7F4F13
:100900000E94390B009759F0998388831B830A83CF
:100910002C813D81232B59F7FC011082E8CF80E028
:10092000E7CFCF93DF93EC0188819981009711F095
:100930000E94B00A198218821D821C821B821A82B0
:10094000DF91CF910895EF92FF920F931F93CF9372
:10095000DF93EC01FB01E080F180E114F10411F17F
:100960000481158101151105A9F08C819D81080F65
:10097000191FB801CE010E946904882399F02881CB
:1009800039818C819D81B701820F931F0E94FF0BDB
:100990001D830C83CE01DF91CF911F910F91FF90AA
:1009A000EF900895CE010E949104F4CFEF92FF9250
:1009B0000F931F93CF93DF93EC017B018A01BA0160
:1009C0000E94690481110BC0CE010E949104CE01E6
:1009D000DF91CF911F910F91FF90EF9008951D83AC
:1009E0000C83B701888199810E94FF0BF0CFCF93D0
:1009F000DF93EC01FB018617970749F06081718155
:100A00006115710541F0448155810E94D604CE01E3
:100A1000DF91CF9108950E949104F9CFFC0180816C
:100A20009181009711F00C94B00A089585ED8093A0
:100A3000BC0080915D0290915E02A0915F02B09136
:100A400060020796A11DB11D23E0B695A795979565
:100A500087952A95D1F72091BC0024FD03C0109200
:100A6000A602089540915D0250915E0260915F027E
:100A700070916002452B462B472B69F30097A10527
:100A8000B10541F02AE22A95F1F700C00197A109CA
:100A9000B109E1CF80915C020C94F0011F920F929A
:100AA0000FB60F9211242F933F938F939F93AF9381
:100AB000BF938091CF029091D002A091D102B091CA
:100AC000D2023091CE0223E0230F2D3758F5019644
:100AD000A11DB11D2093CE028093CF029093D0022E
:100AE000A093D102B093D2028091D3029091D4020C
:100AF000A091D502B091D6020196A11DB11D80939F
:100B0000D3029093D402A093D502B093D602BF91A2
:100B1000AF919F918F913F912F910F900FBE0F90AA
:100B20001F90189526E8230F0296A11DB11DD2CF64
:100B30001F920F920FB60F9211242F933F934F9352
:100B40005F936F937F938F939F93AF93BF93EF9335
:100B5000FF938091B900887F803609F44AC0F0F590
:100B6000883209F4A7C018F5803109F49BC0B8F4A5
:100B7000882309F4F9C0883009F494C0FF91EF91FB
:100B8000BF91AF919F918F917F916F915F914F91A5
:100B90003F912F910F900FBE0F901F9018958831A5
:100BA00009F488C0803251F78093A50214C08034C4
:100BB00009F49DC040F48033B9F38833F9F680938B
:100BC000A50285ECB0C0803509F485C0883509F4EC
:100BD00096C0883499F60E941605D0CF883909F45A
:100BE0008CC038F5883729F050F4883611F08037FA
:100BF00029F683E08093A6021092A40257C0883899
:100C000009F47BC0803919F0803809F0B7CF8091A2
:100C1000A402803208F071C0E091A40281E08E0F3E
:100C20008093A4028091BB00F0E0EC57FD4F8083DD
:100C30003DC0803B39F0E0F4803A09F479C0883A4D
:100C400009F09CCF84E08093A60210928302109258
:100C50008202E091D902F091DA0209958091820234
:100C600081110FC081E0809382021092620209C05C
:100C7000803C09F4A6CF883C09F4A3CF883B09F057
:100C80007DCFE091830281E08E0F80938302F0E0BC
:100C9000EE59FD4F80818093BB009091830280913B
:100CA000820229C08091CB028093BB0085EC8093A7
:100CB000BC0064CF9091CA028091C902981758F580
:100CC000E091CA0281E08E0F8093CA02F0E0E755FE
:100CD000FD4F8081E9CFE091CA0281E08E0F8093C1
:100CE000CA028091BB00F0E0E755FD4F80839091F0
:100CF000CA028091C9029817C8F285E8D8CFE0915E
:100D0000CA0281E08E0F8093CA028091BB00F0E09E
:100D1000E755FD4F80838091A80281115CCF81E06F
:100D20008093A70284EA8093BC001092A60226CF8B
:100D300085EC8093BC001092A6028091A4028032C0
:100D400030F4E091A402F0E0EC57FD4F1082609186
:100D5000A40270E0E091D702F091D80284E892E01A
:100D600009951092A4020ACF1092A50234CFFC017B
:100D7000118210821382128215821482FB0101906B
:100D80000020E9F73197AF01461B570B0C94D604AE
:100D9000E1EEF2E01382128288EE93E0A0E0B0E090
:100DA00084839583A683B7838AE291E091838083CD
:100DB000EFEFF2E01182108213821282148268E354
:100DC00071E089EF92E00E94B70669E471E083EF79
:100DD00092E00E94B7066BE072E08DEE92E00C9418
:100DE000B706CF93DF93CDB7DEB72C970FB6F89445
:100DF000DEBF0FBECDBF789484B5826084BD84B55C
:100E0000816084BD85B5826085BD85B5816085BD05
:100E100080916E00816080936E00109281008091BD
:100E20008100826080938100809181008160809345
:100E30008100809180008160809380008091B1006A
:100E400084608093B1008091B00081608093B00095
:100E500080917A00846080937A0080917A00826029
:100E600080937A0080917A00816080937A008091EB
:100E70007A00806880937A001092C1000E94D901A4
:100E800064EF71E080E090E00E9435018CE00E9408
:100E90008A008AE00E948A0088E00E948A0000E0BE
:100EA000F12C11E0EE24E394E092E0021093DF02D3
:100EB0001092DE021092DD0281EE92E00E94970213
:100EC00081110AC0183431F01E3311F0123621F4AA
:100ED00001E002C0FF24F3941F5F1F3729F7FF20B2
:100EE00009F469C181E0809303038CE090E00E94E3
:100EF000140A8C01FC01138212828EE191E091832D
:100F00008083118688E4848360E1F62EF28682E095
:100F10008387109300030093FF020E94D901F80118
:100F2000F5828385823010F098E19583F8018087FF
:100F30008BE39DE00197F1F76581606270E0C80185
:100F40000E94FC038BE496E40197F1F7F8016581B8
:100F5000606270E0C8010E94FC0383E592E00197A3
:100F6000F1F7F8016581606270E0C8010E94FC033E
:100F7000F8016581606270E0C8010E94FC0384E0B2
:100F8000F80186836CE070E0C8010E94FC03C80190
:100F90000E94470482E0F801878366E070E0C801A0
:100FA0000E94FC0362E070E0C8010E94FC038BE336
:100FB0009FE10197F1F764EF71E080E090E00E941B
:100FC000350180910303882309F4A8C18091FF02B1
:100FD000909100030E9447041A8219821C821B828E
:100FE0001E821D826DEE72E0CE0101960E94F70412
:100FF00063EF72E0CE0101960E94A3046DEE72E0F1
:101000000E94A304BC0183EF92E00E94F704CE018A
:1010100001960E940E0586E0A82EB12C90E0892E44
:1010200090E0992E20E8722E30EC632EE090CC02F6
:10103000F090CD026701F0E1CF0ED11CCE14DF0499
:1010400028F49E2D8F2D7601C92ED82E18861F824A
:101050001A8619861C861B8650E040E06BE172E020
:10106000CE0107960E94D6040091F7021091F80273
:10107000E016F10650F5C016D10608F48601E0919D
:10108000F302F091F402E00FF11FD0801082609122
:10109000F3027091F4026E0D7F1D6115710509F464
:1010A00049C1FB0101900020E9F73197AF01461BD0
:1010B000570BCE0107960E94D6048091F3029091BF
:1010C000F402080F191FF801D082809103038823CE
:1010D00009F435C161E08091FF02909100030E9404
:1010E00018041A8219821C821B821E821D82BE0174
:1010F000695F7F4FCE0101960E94F704CE010196F1
:101100000E94A900CE0101960E940E056CE271E0DA
:1011100080E090E00E9435018091CC029091CD0258
:1011200001969093CD028093CC0280910303882393
:1011300009F411C160E08091FF02909100030E94C8
:1011400018048091CC029091CD02B5010E94FA0959
:101150001A8219821C821B821E821D8269EF72E034
:10116000039710F06DEE72E0CE0101960E94F70435
:10117000CE0101960E94A900CE0101960E940E05A3
:101180008091F7029091F80240972091CC02309123
:10119000CD028217930720F41092CD021092CC0258
:1011A000CE0107960E940E058114910409F43ECFEA
:1011B0000E9400003BCF002309F403CF10920303E9
:1011C0008DE090E00E94140A8C01FC0113821282CF
:1011D00082E191E0918380831582168217821086C6
:1011E00011861286109302030093010381EE92E0B0
:1011F000948783870E94D901F8016581862F8860D2
:10120000858342E0F42EF18612868BE39DE0019700
:10121000F1F76862C8010E94EA038BE496E4019743
:10122000F1F7F80165816062C8010E94EA0383E575
:1012300092E00197F1F7F80165816062C8010E94B0
:10124000EA03F80165816062C8010E94EA0384E054
:10125000F80186836CE0C8010E94EA0361E0C801DE
:101260000E94EA038BE39FE10197F1F7F801F7820F
:1012700066E0C8010E94EA03F8018385948521E0B5
:101280002093E00250E3F52EF092DF021092DE028E
:101290001092DD020E949702811124C0F801F482AD
:1012A00047E060E0C8010E94AD038BE193E0019745
:1012B000F1F745E164E0C8010E94AD03F8018481C3
:1012C0004FEF8033F9F466E0C8010E94AD034FEFA1
:1012D00067E0C8010E94AD034FEF68E0C8010E94BB
:1012E000AD0369CE82E6F801848340E060E0C80186
:1012F0000E94AD034FEF68E0C8010E94AD0340E2D9
:1013000061E0D9CF64E0C8010E94AD034FEF63E014
:10131000C8010E94AD034FEF62E0E0CF61E0809131
:101320000103909102030E94EA038BE39FE101977E
:10133000F1F752CECE0107960E949104BECE809165
:1013400001039091020379826A82BE016F5F7F4F31
:101350000E947E03C6CE80910103909102037982A0
:101360007A82BE016F5F7F4F0E947E03EACE8DEED0
:1013700092E00E940E0583EF92E00E940E0589EF35
:1013800092E00C940E052F923F924F925F926F92D3
:101390007F928F929F92AF92BF92CF92DF92EF9205
:1013A000FF920F931F93CF93DF93CDB7DEB7CA1B86
:1013B000DB0B0FB6F894DEBF0FBECDBF09942A88B1
:1013C000398848885F846E847D848C849B84AA8459
:1013D000B984C884DF80EE80FD800C811B81AA81E6
:1013E000B981CE0FD11D0FB6F894DEBF0FBECDBFB1
:1013F000ED010895AA1BBB1B51E107C0AA1FBB1F2B
:10140000A617B70710F0A61BB70B881F991F5A9590
:10141000A9F780959095BC01CD010895EE0FFF1FAF
:101420000590F491E02D09940F931F93CF93DF93D0
:101430008230910510F482E090E0E0910603F09193
:10144000070330E020E0B0E0A0E0309799F42115E8
:10145000310509F44AC0281B390B24303105D8F571
:101460008A819B816115710589F1FB0193838283D8
:10147000FE0111C040815181028113814817590733
:10148000E0F04817590799F4109761F012960C9301
:10149000129713961C933296CF01DF91CF911F9133
:1014A0000F9108950093060310930703F4CF2115BD
:1014B000310551F04217530738F0A901DB019A01B9
:1014C000BD01DF01F801C1CFEF01F9CF9093070310
:1014D00080930603CDCFFE01E20FF31F819391931A
:1014E0002250310939832883D7CF209104033091CA
:1014F0000503232B41F42091020130910301309325
:10150000050320930403209100013091010121156E
:10151000310541F42DB73EB74091040150910501CA
:10152000241B350BE0910403F0910503E217F30748
:10153000A0F42E1B3F0B2817390778F0AC014E5F43
:101540005F4F2417350748F04E0F5F1F5093050378
:1015500040930403819391939FCFF0E0E0E09CCF10
:10156000CF93DF930097E9F0FC0132971382128248
:10157000A0910603B0910703ED0130E020E0109741
:10158000A1F420813181820F931F209104033091B7
:1015900005032817390709F061C0F0930503E093AC
:1015A0000403DF91CF910895EA01CE17DF07E8F534
:1015B0004A815B819E0141155105B1F7E901FB8329
:1015C000EA8349915991C40FD51FEC17FD0761F4C7
:1015D000808191810296840F951FE9019983888308
:1015E000828193819B838A83F0E0E0E012968D9163
:1015F0009C9113970097B9F52D913C911197CD01CE
:101600000296820F931F209104033091050328173F
:10161000390739F6309751F51092070310920603F7
:10162000B0930503A0930403BCCFD383C28340814E
:101630005181840F951FC817D90761F44E5F5F4F22
:1016400088819981480F591F518340838A819B81EA
:10165000938382832115310509F0B0CFF0930703FE
:10166000E09306039ECFFD01DC01C0CF13821282FE
:10167000D7CFB0E0A0E0EFE3FBE00C94C5098C010C
:10168000009751F4CB010E94140A8C01C801CDB718
:10169000DEB7E0E10C94E109FC01E60FF71F9C01C5
:1016A00022503109E217F30708F49DC0D901CD910A
:1016B000DC911197C617D70798F0C530D10530F3E4
:1016C000CE0104978617970708F3C61BD70B2297FE
:1016D000C193D1936D937C93CF010E94B00AD6CF72
:1016E0005B01AC1ABD0A4C018C0E9D1EA091060335
:1016F000B0910703512C412CF12CE12C109731F5BE
:1017000080910403909105038815990509F05CC048
:101710004616570608F058C08091000190910101CB
:10172000009741F48DB79EB7409104015091050197
:10173000841B950BE817F90708F055C0F0930503D3
:10174000E0930403F90171836083A0CF8D919C9194
:10175000119712966C90129713967C901397A81578
:10176000B90559F56C0142E0C40ED11CCA14DB0462
:1017700020F1AC014A195B09DA011296159780F045
:101780006282738251834083D9016D937C93E1140B
:10179000F10471F0D7011396FC93EE93129776CF74
:1017A00022968C0F9D1FF90191838083F301EFCF67
:1017B000F0930703E093060369CF4816590608F42F
:1017C0002C017D01D3019ACFCB010E94140A7C0128
:1017D000009749F0AE01B8010E94F60BC8010E94C3
:1017E000B00A870153CF10E000E050CFFB01DC01CD
:1017F00002C001900D9241505040D8F70895FB016E
:10180000DC0101900D920020E1F7089510E0CDE594
:10181000D0E004C0FE010E940E0A2196CE35D10709
:06182000C9F7F894FFCFA8
:10182600000008038000000040001400540000007F
:101836000000D603670166046504000000005E042C
:101846006701660465040000000068023B02660446
:101856001102340221021202202020415454454E26
:1018660054494F4E2020202000417563756E20702C
:10187600726F6772616D6D652041726475696E6F16
:10188600206E276573742061637475656C6C656D75
:10189600656E742061637469662064616E7320638B
:1018A600657474652073696D756C6174696F6E2EED
:1018B600204C61207A6F6E652064652064726F69C2
:1018C6007465207065726D65742064652063686157
:1018D6007267657220756E2070726F6772616D6DCA
:1018E600652C206465206C6520636F6D70696C657E
:1018F600722C206574206465206C652074656C65A7
:10190600636861726765722064616E73206C65201E
:101916006D6963726F636F6E74726F6C657572203A
:101926007669727475656C2E2E2E0020202020207C
:0C19360020202020202020202020200045
:00000001FF
